{"contracts/timelock-escrow/src/TimeLockReactive.sol":{"TimeLockReactive":{"abi":[{"inputs":[{"internalType":"address","name":"_baseEscrow","type":"address"},{"internalType":"address","name":"_reactiveService","type":"address"}],"stateMutability":"nonpayable","type":"constructor"},{"inputs":[],"name":"baseEscrow","outputs":[{"internalType":"address","name":"","type":"address"}],"stateMutability":"view","type":"function"},{"inputs":[],"name":"initialize","outputs":[],"stateMutability":"nonpayable","type":"function"},{"inputs":[{"internalType":"address","name":"sender","type":"address"},{"internalType":"uint256","name":"index","type":"uint256"},{"internalType":"uint256","name":"unlockTime","type":"uint256"}],"name":"reactDeposit","outputs":[],"stateMutability":"nonpayable","type":"function"},{"inputs":[],"name":"reactiveService","outputs":[{"internalType":"contract IReactiveService","name":"","type":"address"}],"stateMutability":"view","type":"function"}],"evm":{"bytecode":{"linkReferences":{},"object":"60c03461009f57601f61042c38819003918201601f19168301916001600160401b038311848410176100a457808492604094855283398101031261009f57610052602061004b836100ba565b92016100ba565b6080919091526001600160a01b031660a05260405161035d90816100cf823960805181818161013f015281816101f90152610280015260a05181818160620152818160f9015261023d0152f35b600080fd5b634e487b7160e01b600052604160045260246000fd5b51906001600160a01b038216820361009f5756fe608080604052600436101561001357600080fd5b600090813560e01c9081638129fc1c1461022857508063b96cc1e3146101e3578063c2e802de146100945763f9a939a81461004d57600080fd5b346100915780600319360112610091576040517f00000000000000000000000000000000000000000000000000000000000000006001600160a01b03168152602090f35b80fd5b5034610091576060366003190112610091576004356001600160a01b038116908190036101df576044354210156100c9575080f35b906040519163f4970e7160e01b602084015260248301526024356044830152604482526100f76064836102ef565b7f00000000000000000000000000000000000000000000000000000000000000006001600160a01b0316803b156101df5760405190639061b04560e01b825260018060a01b037f0000000000000000000000000000000000000000000000000000000000000000166004830152604060248301528351806044840152835b8181106101c9575083945083918383606482858383839884010152601f801991011681010301925af180156101be576101ad57505080f35b816101b7916102ef565b6100915780f35b6040513d84823e3d90fd5b8060208092880101516064828701015201610175565b5080fd5b50346100915780600319360112610091576040517f00000000000000000000000000000000000000000000000000000000000000006001600160a01b03168152602090f35b9050346101df57816003193601126101df57817f00000000000000000000000000000000000000000000000000000000000000006001600160a01b0316803b156101df57637af14d9960e01b835261210560048401527f00000000000000000000000000000000000000000000000000000000000000006001600160a01b031660248401526391ede45f60e01b604484015281908390606490829084905af180156102e2576102d45780f35b6102dd916102ef565b388180f35b50604051903d90823e3d90fd5b90601f8019910116810190811067ffffffffffffffff82111761031157604052565b634e487b7160e01b600052604160045260246000fdfea26469706673582212204162777d02c1036252bf4fee315ec34e8ea5f2b0abd882607dadf83b6c27176464736f6c634300081c0033","opcodes":"PUSH1 0xC0 CALLVALUE PUSH2 0x9F JUMPI PUSH1 0x1F PUSH2 0x42C CODESIZE DUP2 SWAP1 SUB SWAP2 DUP3 ADD PUSH1 0x1F NOT AND DUP4 ADD SWAP2 PUSH1 0x1 PUSH1 0x1 PUSH1 0x40 SHL SUB DUP4 GT DUP5 DUP5 LT OR PUSH2 0xA4 JUMPI DUP1 DUP5 SWAP3 PUSH1 0x40 SWAP5 DUP6 MSTORE DUP4 CODECOPY DUP2 ADD SUB SLT PUSH2 0x9F JUMPI PUSH2 0x52 PUSH1 0x20 PUSH2 0x4B DUP4 PUSH2 0xBA JUMP JUMPDEST SWAP3 ADD PUSH2 0xBA JUMP JUMPDEST PUSH1 0x80 SWAP2 SWAP1 SWAP2 MSTORE PUSH1 0x1 PUSH1 0x1 PUSH1 0xA0 SHL SUB AND PUSH1 0xA0 MSTORE PUSH1 0x40 MLOAD PUSH2 0x35D SWAP1 DUP2 PUSH2 0xCF DUP3 CODECOPY PUSH1 0x80 MLOAD DUP2 DUP2 DUP2 PUSH2 0x13F ADD MSTORE DUP2 DUP2 PUSH2 0x1F9 ADD MSTORE PUSH2 0x280 ADD MSTORE PUSH1 0xA0 MLOAD DUP2 DUP2 DUP2 PUSH1 0x62 ADD MSTORE DUP2 DUP2 PUSH1 0xF9 ADD MSTORE PUSH2 0x23D ADD MSTORE RETURN JUMPDEST PUSH1 0x0 DUP1 REVERT JUMPDEST PUSH4 0x4E487B71 PUSH1 0xE0 SHL PUSH1 0x0 MSTORE PUSH1 0x41 PUSH1 0x4 MSTORE PUSH1 0x24 PUSH1 0x0 REVERT JUMPDEST MLOAD SWAP1 PUSH1 0x1 PUSH1 0x1 PUSH1 0xA0 SHL SUB DUP3 AND DUP3 SUB PUSH2 0x9F JUMPI JUMP INVALID PUSH1 0x80 DUP1 PUSH1 0x40 MSTORE PUSH1 0x4 CALLDATASIZE LT ISZERO PUSH2 0x13 JUMPI PUSH1 0x0 DUP1 REVERT JUMPDEST PUSH1 0x0 SWAP1 DUP2 CALLDATALOAD PUSH1 0xE0 SHR SWAP1 DUP2 PUSH4 0x8129FC1C EQ PUSH2 0x228 JUMPI POP DUP1 PUSH4 0xB96CC1E3 EQ PUSH2 0x1E3 JUMPI DUP1 PUSH4 0xC2E802DE EQ PUSH2 0x94 JUMPI PUSH4 0xF9A939A8 EQ PUSH2 0x4D JUMPI PUSH1 0x0 DUP1 REVERT JUMPDEST CALLVALUE PUSH2 0x91 JUMPI DUP1 PUSH1 0x3 NOT CALLDATASIZE ADD SLT PUSH2 0x91 JUMPI PUSH1 0x40 MLOAD PUSH32 0x0 PUSH1 0x1 PUSH1 0x1 PUSH1 0xA0 SHL SUB AND DUP2 MSTORE PUSH1 0x20 SWAP1 RETURN JUMPDEST DUP1 REVERT JUMPDEST POP CALLVALUE PUSH2 0x91 JUMPI PUSH1 0x60 CALLDATASIZE PUSH1 0x3 NOT ADD SLT PUSH2 0x91 JUMPI PUSH1 0x4 CALLDATALOAD PUSH1 0x1 PUSH1 0x1 PUSH1 0xA0 SHL SUB DUP2 AND SWAP1 DUP2 SWAP1 SUB PUSH2 0x1DF JUMPI PUSH1 0x44 CALLDATALOAD TIMESTAMP LT ISZERO PUSH2 0xC9 JUMPI POP DUP1 RETURN JUMPDEST SWAP1 PUSH1 0x40 MLOAD SWAP2 PUSH4 0xF4970E71 PUSH1 0xE0 SHL PUSH1 0x20 DUP5 ADD MSTORE PUSH1 0x24 DUP4 ADD MSTORE PUSH1 0x24 CALLDATALOAD PUSH1 0x44 DUP4 ADD MSTORE PUSH1 0x44 DUP3 MSTORE PUSH2 0xF7 PUSH1 0x64 DUP4 PUSH2 0x2EF JUMP JUMPDEST PUSH32 0x0 PUSH1 0x1 PUSH1 0x1 PUSH1 0xA0 SHL SUB AND DUP1 EXTCODESIZE ISZERO PUSH2 0x1DF JUMPI PUSH1 0x40 MLOAD SWAP1 PUSH4 0x9061B045 PUSH1 0xE0 SHL DUP3 MSTORE PUSH1 0x1 DUP1 PUSH1 0xA0 SHL SUB PUSH32 0x0 AND PUSH1 0x4 DUP4 ADD MSTORE PUSH1 0x40 PUSH1 0x24 DUP4 ADD MSTORE DUP4 MLOAD DUP1 PUSH1 0x44 DUP5 ADD MSTORE DUP4 JUMPDEST DUP2 DUP2 LT PUSH2 0x1C9 JUMPI POP DUP4 SWAP5 POP DUP4 SWAP2 DUP4 DUP4 PUSH1 0x64 DUP3 DUP6 DUP4 DUP4 DUP4 SWAP9 DUP5 ADD ADD MSTORE PUSH1 0x1F DUP1 NOT SWAP2 ADD AND DUP2 ADD SUB ADD SWAP3 GAS CALL DUP1 ISZERO PUSH2 0x1BE JUMPI PUSH2 0x1AD JUMPI POP POP DUP1 RETURN JUMPDEST DUP2 PUSH2 0x1B7 SWAP2 PUSH2 0x2EF JUMP JUMPDEST PUSH2 0x91 JUMPI DUP1 RETURN JUMPDEST PUSH1 0x40 MLOAD RETURNDATASIZE DUP5 DUP3 RETURNDATACOPY RETURNDATASIZE SWAP1 REVERT JUMPDEST DUP1 PUSH1 0x20 DUP1 SWAP3 DUP9 ADD ADD MLOAD PUSH1 0x64 DUP3 DUP8 ADD ADD MSTORE ADD PUSH2 0x175 JUMP JUMPDEST POP DUP1 REVERT JUMPDEST POP CALLVALUE PUSH2 0x91 JUMPI DUP1 PUSH1 0x3 NOT CALLDATASIZE ADD SLT PUSH2 0x91 JUMPI PUSH1 0x40 MLOAD PUSH32 0x0 PUSH1 0x1 PUSH1 0x1 PUSH1 0xA0 SHL SUB AND DUP2 MSTORE PUSH1 0x20 SWAP1 RETURN JUMPDEST SWAP1 POP CALLVALUE PUSH2 0x1DF JUMPI DUP2 PUSH1 0x3 NOT CALLDATASIZE ADD SLT PUSH2 0x1DF JUMPI DUP2 PUSH32 0x0 PUSH1 0x1 PUSH1 0x1 PUSH1 0xA0 SHL SUB AND DUP1 EXTCODESIZE ISZERO PUSH2 0x1DF JUMPI PUSH4 0x7AF14D99 PUSH1 0xE0 SHL DUP4 MSTORE PUSH2 0x2105 PUSH1 0x4 DUP5 ADD MSTORE PUSH32 0x0 PUSH1 0x1 PUSH1 0x1 PUSH1 0xA0 SHL SUB AND PUSH1 0x24 DUP5 ADD MSTORE PUSH4 0x91EDE45F PUSH1 0xE0 SHL PUSH1 0x44 DUP5 ADD MSTORE DUP2 SWAP1 DUP4 SWAP1 PUSH1 0x64 SWAP1 DUP3 SWAP1 DUP5 SWAP1 GAS CALL DUP1 ISZERO PUSH2 0x2E2 JUMPI PUSH2 0x2D4 JUMPI DUP1 RETURN JUMPDEST PUSH2 0x2DD SWAP2 PUSH2 0x2EF JUMP JUMPDEST CODESIZE DUP2 DUP1 RETURN JUMPDEST POP PUSH1 0x40 MLOAD SWAP1 RETURNDATASIZE SWAP1 DUP3 RETURNDATACOPY RETURNDATASIZE SWAP1 REVERT JUMPDEST SWAP1 PUSH1 0x1F DUP1 NOT SWAP2 ADD AND DUP2 ADD SWAP1 DUP2 LT PUSH8 0xFFFFFFFFFFFFFFFF DUP3 GT OR PUSH2 0x311 JUMPI PUSH1 0x40 MSTORE JUMP JUMPDEST PUSH4 0x4E487B71 PUSH1 0xE0 SHL PUSH1 0x0 MSTORE PUSH1 0x41 PUSH1 0x4 MSTORE PUSH1 0x24 PUSH1 0x0 REVERT INVALID LOG2 PUSH5 0x6970667358 0x22 SLT KECCAK256 COINBASE PUSH3 0x777D02 0xC1 SUB PUSH3 0x52BF4F 0xEE BALANCE MCOPY 0xC3 0x4E DUP15 0xA5 CALLCODE 0xB0 0xAB 0xD8 DUP3 PUSH1 0x7D 0xAD 0xF8 EXTCODESIZE PUSH13 0x27176464736F6C634300081C00 CALLER "},"methodIdentifiers":{"baseEscrow()":"b96cc1e3","initialize()":"8129fc1c","reactDeposit(address,uint256,uint256)":"c2e802de","reactiveService()":"f9a939a8"}}}}}