{"contracts/GrievanceRegistry.sol":{"GrievanceRegistry":{"abi":[{"anonymous":false,"inputs":[{"indexed":false,"internalType":"string","name":"trackingId","type":"string"}],"name":"GrievanceDetailsAdded","type":"event"},{"anonymous":false,"inputs":[{"indexed":false,"internalType":"string","name":"trackingId","type":"string"}],"name":"GrievanceMetaAdded","type":"event"},{"anonymous":false,"inputs":[{"indexed":false,"internalType":"string","name":"trackingId","type":"string"}],"name":"GrievanceResolved","type":"event"},{"anonymous":false,"inputs":[{"indexed":false,"internalType":"string","name":"trackingId","type":"string"},{"indexed":true,"internalType":"address","name":"submitter","type":"address"}],"name":"GrievanceSubmitted","type":"event"},{"inputs":[],"name":"getAllTrackingIds","outputs":[{"internalType":"string[]","name":"","type":"string[]"}],"stateMutability":"view","type":"function"},{"inputs":[{"internalType":"string","name":"trackingId","type":"string"}],"name":"getGrievanceBasic","outputs":[{"internalType":"string","name":"title","type":"string"},{"internalType":"string","name":"description","type":"string"},{"internalType":"string","name":"category","type":"string"},{"internalType":"string","name":"location","type":"string"},{"internalType":"uint256","name":"mediaCount","type":"uint256"},{"internalType":"string","name":"priorityLevel","type":"string"},{"internalType":"uint256","name":"timestamp","type":"uint256"},{"internalType":"address","name":"submitter","type":"address"},{"internalType":"bool","name":"resolved","type":"bool"}],"stateMutability":"view","type":"function"},{"inputs":[{"internalType":"string","name":"trackingId","type":"string"}],"name":"getGrievanceDetails","outputs":[{"internalType":"uint256","name":"estimatedDays","type":"uint256"},{"internalType":"uint256","name":"fundAmount","type":"uint256"},{"internalType":"string","name":"currency","type":"string"},{"internalType":"string","name":"aiJustification","type":"string"}],"stateMutability":"view","type":"function"},{"inputs":[{"internalType":"string","name":"trackingId","type":"string"}],"name":"markResolved","outputs":[],"stateMutability":"nonpayable","type":"function"},{"inputs":[{"internalType":"string","name":"title","type":"string"},{"internalType":"string","name":"description","type":"string"},{"internalType":"string","name":"category","type":"string"},{"internalType":"string","name":"location","type":"string"},{"internalType":"uint256","name":"mediaCount","type":"uint256"},{"internalType":"string","name":"priorityLevel","type":"string"},{"internalType":"string","name":"trackingId","type":"string"},{"internalType":"uint256","name":"estimatedDays","type":"uint256"},{"internalType":"uint256","name":"fundAmount","type":"uint256"},{"internalType":"string","name":"currency","type":"string"},{"internalType":"string","name":"aiJustification","type":"string"}],"name":"submitGrievance","outputs":[],"stateMutability":"nonpayable","type":"function"}],"evm":{"bytecode":{"linkReferences":{},"object":"608080604052346015576111fd908161001b8239f35b600080fdfe6080604052600436101561001257600080fd5b60003560e01c806315e7e9ac14610ed05780631ad6550b14610dae57806354cb24a414610cb0578063ca3bd5d414610bf75763e601539d1461005357600080fd5b34610bf257610160366003190112610bf2576004356001600160401b038111610bf257610084903690600401610f84565b6024356001600160401b038111610bf2576100a3903690600401610f84565b906044356001600160401b038111610bf2576100c3903690600401610f84565b906064356001600160401b038111610bf2576100e3903690600401610f84565b9160a4356001600160401b038111610bf257610103903690600401610f84565b60c4356001600160401b038111610bf257610122903690600401610f84565b93610124356001600160401b038111610bf257610143903690600401610f84565b92610144356001600160401b038111610bf257610164903690600401610f84565b96604051956101c087018781106001600160401b03821117610679576040528652602086015260408501526060840152608435608084015260a08301528260c08301524260e083015233610100830152600061012083015260e435610140830152610104356101608301526101808201526101a081019283526000546801000000000000000081101561067957806001610201920160005561106e565b919091610bdc5780518051906001600160401b03821161067957819061022785546110be565b601f8111610b8c575b50602090601f8311600114610b2757600092610b1c575b50508160011b916000199060031b1c19161782555b6001820160208201518051906001600160401b03821161067957819061028284546110be565b601f8111610ac9575b50602090601f8311600114610a6457600092610a59575b50508160011b916000199060031b1c19161790555b6002820160408201518051906001600160401b0382116106795781906102dd84546110be565b601f8111610a06575b50602090601f83116001146109a157600092610996575b50508160011b916000199060031b1c19161790555b6003820160608201518051906001600160401b03821161067957819061033884546110be565b601f8111610943575b50602090601f83116001146108de576000926108d3575b50508160011b916000199060031b1c19161790555b608081015160048301556005820160a08201518051906001600160401b03821161067957819061039d84546110be565b601f8111610880575b50602090601f831160011461081b57600092610810575b50508160011b916000199060031b1c19161790555b6006820160c08201518051906001600160401b0382116106795781906103f884546110be565b601f81116107bd575b50602090601f83116001146107585760009261074d575b50508160011b916000199060031b1c19161790555b60e0810151600783015561010081015160088301805461012084015160ff60a01b90151560a01b166001600160a01b039093166001600160a81b0319909116179190911790556101408101516009830155610160810151600a83015561018001518051600b8301916001600160401b038211610679576104ad83546110be565b601f8111610705575b50602090601f831160011461069a57600c949392916000918361068f575b50508160011b916000199060031b1c19161790555b0191519182516001600160401b0381116106795761050782546110be565b601f8111610631575b506020601f82116001146105cc57819293946000926105c1575b50508160011b916000199060031b1c19161790555b60005460001981019081116105ab5760405160208184516105638183858901610fda565b81016001815203019020557ff5a6c84b3f6ab37509465bf68bcae799c9ac4c1ef656db5fa4d4fb5eda2620a960405160208152806105a633946020830190610ffd565b0390a2005b634e487b7160e01b600052601160045260246000fd5b01519050388061052a565b601f1982169083600052806000209160005b81811061061957509583600195969710610600575b505050811b01905561053f565b015160001960f88460031b161c191690553880806105f3565b9192602060018192868b0151815501940192016105de565b826000526020600020601f830160051c8101916020841061066f575b601f0160051c01905b8181106106635750610510565b60008155600101610656565b909150819061064d565b634e487b7160e01b600052604160045260246000fd5b0151905038806104d4565b90601f1983169184600052816000209260005b8181106106ed5750916001939185600c98979694106106d4575b505050811b0190556104e9565b015160001960f88460031b161c191690553880806106c7565b929360206001819287860151815501950193016106ad565b836000526020600020601f840160051c81019160208510610743575b601f0160051c01905b81811061073757506104b6565b6000815560010161072a565b9091508190610721565b015190503880610418565b60008581528281209350601f198516905b8181106107a5575090846001959493921061078c575b505050811b01905561042d565b015160001960f88460031b161c1916905538808061077f565b92936020600181928786015181550195019301610769565b909150836000526020600020601f840160051c81019160208510610806575b90601f859493920160051c01905b8181106107f75750610401565b600081558493506001016107ea565b90915081906107dc565b0151905038806103bd565b60008581528281209350601f198516905b818110610868575090846001959493921061084f575b505050811b0190556103d2565b015160001960f88460031b161c19169055388080610842565b9293602060018192878601518155019501930161082c565b909150836000526020600020601f840160051c810191602085106108c9575b90601f859493920160051c01905b8181106108ba57506103a6565b600081558493506001016108ad565b909150819061089f565b015190503880610358565b60008581528281209350601f198516905b81811061092b5750908460019594939210610912575b505050811b01905561036d565b015160001960f88460031b161c19169055388080610905565b929360206001819287860151815501950193016108ef565b909150836000526020600020601f840160051c8101916020851061098c575b90601f859493920160051c01905b81811061097d5750610341565b60008155849350600101610970565b9091508190610962565b0151905038806102fd565b60008581528281209350601f198516905b8181106109ee57509084600195949392106109d5575b505050811b019055610312565b015160001960f88460031b161c191690553880806109c8565b929360206001819287860151815501950193016109b2565b909150836000526020600020601f840160051c81019160208510610a4f575b90601f859493920160051c01905b818110610a4057506102e6565b60008155849350600101610a33565b9091508190610a25565b0151905038806102a2565b60008581528281209350601f198516905b818110610ab15750908460019594939210610a98575b505050811b0190556102b7565b015160001960f88460031b161c19169055388080610a8b565b92936020600181928786015181550195019301610a75565b909150836000526020600020601f840160051c81019160208510610b12575b90601f859493920160051c01905b818110610b03575061028b565b60008155849350600101610af6565b9091508190610ae8565b015190503880610247565b60008681528281209350601f198516905b818110610b745750908460019594939210610b5b575b505050811b01825561025c565b015160001960f88460031b161c19169055388080610b4e565b92936020600181928786015181550195019301610b38565b909150846000526020600020601f840160051c810160208510610bd5575b90849392915b601f830160051c82018110610bc6575050610230565b60008155859450600101610bb0565b5080610baa565b634e487b7160e01b600052600060045260246000fd5b600080fd5b34610bf2576020366003190112610bf2576004356001600160401b038111610bf257610cab610c4b7f9e877846fc0246eebec1bd959d42ba4e886602c08b0d4a4983669824405404dd923690600401610f84565b6008610c826040516020818551610c658183858a01610fda565b8101600181520301902054610c7d6000548210611022565b61106e565b5001805460ff60a01b1916600160a01b1790556040516020808252909283929091830190610ffd565b0390a1005b34610bf2576000366003190112610bf257600054610ccd8161119c565b90610cdb6040519283610f63565b808252601f19610cea8261119c565b0160005b818110610d9d57505060005b818110610d6957826040518091602082016020835281518091526040830190602060408260051b8601019301916000905b828210610d3a57505050500390f35b91936001919395506020610d598192603f198a82030186528851610ffd565b9601920192018594939192610d2b565b80610d816006610d7a60019461106e565b50016110f8565b610d8b82866111b3565b52610d9681856111b3565b5001610cfa565b806060602080938701015201610cee565b34610bf2576020366003190112610bf2576004356001600160401b038111610bf257610c656020610de6610df9933690600401610f84565b8160405193828580945193849201610fda565b50610120600482015460ff600784015491610ea9600886015491610e1c876110f8565b96610e96610e2c600183016110f8565b91610e88610e3c600283016110f8565b610e7a610e576005610e50600387016110f8565b95016110f8565b95610e6c6040519e8f9e8f8181520190610ffd565b8d810360208f015290610ffd565b908b820360408d0152610ffd565b9089820360608b0152610ffd565b91608088015286820360a0880152610ffd565b60c08501939093526001600160a01b03811660e085015260a01c1615156101008301520390f35b34610bf2576020366003190112610bf2576004356001600160401b038111610bf257610c656020610de6610f08933690600401610f84565b506009810154610f5f600a83015492610f51610f32600c610f2b600b85016110f8565b93016110f8565b9160405195869586526020860152608060408601526080850190610ffd565b908382036060850152610ffd565b0390f35b90601f801991011681019081106001600160401b0382111761067957604052565b81601f82011215610bf2578035906001600160401b0382116106795760405192610fb8601f8401601f191660200185610f63565b82845260208383010111610bf257816000926020809301838601378301015290565b60005b838110610fed5750506000910152565b8181015183820152602001610fdd565b9060209161101681518092818552858086019101610fda565b601f01601f1916010190565b1561102957565b60405162461bcd60e51b815260206004820152601860248201527f4772696576616e636520646f6573206e6f7420657869737400000000000000006044820152606490fd5b6000548110156110a8576000808052600d919091027f290decd9548b62a8d60345a988386fc84ba6bc95484008f6362f93160ef3e5630191565b634e487b7160e01b600052603260045260246000fd5b90600182811c921680156110ee575b60208310146110d857565b634e487b7160e01b600052602260045260246000fd5b91607f16916110cd565b906040519182600082549261110c846110be565b808452936001811690811561117a5750600114611133575b5061113192500383610f63565b565b90506000929192526020600020906000915b81831061115e5750509060206111319282010138611124565b6020919350806001915483858901015201910190918492611145565b90506020925061113194915060ff191682840152151560051b82010138611124565b6001600160401b0381116106795760051b60200190565b80518210156110a85760209160051b01019056fea2646970667358221220b05696f03f12482e917bcaea5cb4da880551618e9d6e48ddfa0c5c22b2afc1dd64736f6c634300081c0033","opcodes":"PUSH1 0x80 DUP1 PUSH1 0x40 MSTORE CALLVALUE PUSH1 0x15 JUMPI PUSH2 0x11FD SWAP1 DUP2 PUSH2 0x1B DUP3 CODECOPY RETURN JUMPDEST PUSH1 0x0 DUP1 REVERT INVALID PUSH1 0x80 PUSH1 0x40 MSTORE PUSH1 0x4 CALLDATASIZE LT ISZERO PUSH2 0x12 JUMPI PUSH1 0x0 DUP1 REVERT JUMPDEST PUSH1 0x0 CALLDATALOAD PUSH1 0xE0 SHR DUP1 PUSH4 0x15E7E9AC EQ PUSH2 0xED0 JUMPI DUP1 PUSH4 0x1AD6550B EQ PUSH2 0xDAE JUMPI DUP1 PUSH4 0x54CB24A4 EQ PUSH2 0xCB0 JUMPI DUP1 PUSH4 0xCA3BD5D4 EQ PUSH2 0xBF7 JUMPI PUSH4 0xE601539D EQ PUSH2 0x53 JUMPI PUSH1 0x0 DUP1 REVERT JUMPDEST CALLVALUE PUSH2 0xBF2 JUMPI PUSH2 0x160 CALLDATASIZE PUSH1 0x3 NOT ADD SLT PUSH2 0xBF2 JUMPI PUSH1 0x4 CALLDATALOAD PUSH1 0x1 PUSH1 0x1 PUSH1 0x40 SHL SUB DUP2 GT PUSH2 0xBF2 JUMPI PUSH2 0x84 SWAP1 CALLDATASIZE SWAP1 PUSH1 0x4 ADD PUSH2 0xF84 JUMP JUMPDEST PUSH1 0x24 CALLDATALOAD PUSH1 0x1 PUSH1 0x1 PUSH1 0x40 SHL SUB DUP2 GT PUSH2 0xBF2 JUMPI PUSH2 0xA3 SWAP1 CALLDATASIZE SWAP1 PUSH1 0x4 ADD PUSH2 0xF84 JUMP JUMPDEST SWAP1 PUSH1 0x44 CALLDATALOAD PUSH1 0x1 PUSH1 0x1 PUSH1 0x40 SHL SUB DUP2 GT PUSH2 0xBF2 JUMPI PUSH2 0xC3 SWAP1 CALLDATASIZE SWAP1 PUSH1 0x4 ADD PUSH2 0xF84 JUMP JUMPDEST SWAP1 PUSH1 0x64 CALLDATALOAD PUSH1 0x1 PUSH1 0x1 PUSH1 0x40 SHL SUB DUP2 GT PUSH2 0xBF2 JUMPI PUSH2 0xE3 SWAP1 CALLDATASIZE SWAP1 PUSH1 0x4 ADD PUSH2 0xF84 JUMP JUMPDEST SWAP2 PUSH1 0xA4 CALLDATALOAD PUSH1 0x1 PUSH1 0x1 PUSH1 0x40 SHL SUB DUP2 GT PUSH2 0xBF2 JUMPI PUSH2 0x103 SWAP1 CALLDATASIZE SWAP1 PUSH1 0x4 ADD PUSH2 0xF84 JUMP JUMPDEST PUSH1 0xC4 CALLDATALOAD PUSH1 0x1 PUSH1 0x1 PUSH1 0x40 SHL SUB DUP2 GT PUSH2 0xBF2 JUMPI PUSH2 0x122 SWAP1 CALLDATASIZE SWAP1 PUSH1 0x4 ADD PUSH2 0xF84 JUMP JUMPDEST SWAP4 PUSH2 0x124 CALLDATALOAD PUSH1 0x1 PUSH1 0x1 PUSH1 0x40 SHL SUB DUP2 GT PUSH2 0xBF2 JUMPI PUSH2 0x143 SWAP1 CALLDATASIZE SWAP1 PUSH1 0x4 ADD PUSH2 0xF84 JUMP JUMPDEST SWAP3 PUSH2 0x144 CALLDATALOAD PUSH1 0x1 PUSH1 0x1 PUSH1 0x40 SHL SUB DUP2 GT PUSH2 0xBF2 JUMPI PUSH2 0x164 SWAP1 CALLDATASIZE SWAP1 PUSH1 0x4 ADD PUSH2 0xF84 JUMP JUMPDEST SWAP7 PUSH1 0x40 MLOAD SWAP6 PUSH2 0x1C0 DUP8 ADD DUP8 DUP2 LT PUSH1 0x1 PUSH1 0x1 PUSH1 0x40 SHL SUB DUP3 GT OR PUSH2 0x679 JUMPI PUSH1 0x40 MSTORE DUP7 MSTORE PUSH1 0x20 DUP7 ADD MSTORE PUSH1 0x40 DUP6 ADD MSTORE PUSH1 0x60 DUP5 ADD MSTORE PUSH1 0x84 CALLDATALOAD PUSH1 0x80 DUP5 ADD MSTORE PUSH1 0xA0 DUP4 ADD MSTORE DUP3 PUSH1 0xC0 DUP4 ADD MSTORE TIMESTAMP PUSH1 0xE0 DUP4 ADD MSTORE CALLER PUSH2 0x100 DUP4 ADD MSTORE PUSH1 0x0 PUSH2 0x120 DUP4 ADD MSTORE PUSH1 0xE4 CALLDATALOAD PUSH2 0x140 DUP4 ADD MSTORE PUSH2 0x104 CALLDATALOAD PUSH2 0x160 DUP4 ADD MSTORE PUSH2 0x180 DUP3 ADD MSTORE PUSH2 0x1A0 DUP2 ADD SWAP3 DUP4 MSTORE PUSH1 0x0 SLOAD PUSH9 0x10000000000000000 DUP2 LT ISZERO PUSH2 0x679 JUMPI DUP1 PUSH1 0x1 PUSH2 0x201 SWAP3 ADD PUSH1 0x0 SSTORE PUSH2 0x106E JUMP JUMPDEST SWAP2 SWAP1 SWAP2 PUSH2 0xBDC JUMPI DUP1 MLOAD DUP1 MLOAD SWAP1 PUSH1 0x1 PUSH1 0x1 PUSH1 0x40 SHL SUB DUP3 GT PUSH2 0x679 JUMPI DUP2 SWAP1 PUSH2 0x227 DUP6 SLOAD PUSH2 0x10BE JUMP JUMPDEST PUSH1 0x1F DUP2 GT PUSH2 0xB8C JUMPI JUMPDEST POP PUSH1 0x20 SWAP1 PUSH1 0x1F DUP4 GT PUSH1 0x1 EQ PUSH2 0xB27 JUMPI PUSH1 0x0 SWAP3 PUSH2 0xB1C JUMPI JUMPDEST POP POP DUP2 PUSH1 0x1 SHL SWAP2 PUSH1 0x0 NOT SWAP1 PUSH1 0x3 SHL SHR NOT AND OR DUP3 SSTORE JUMPDEST PUSH1 0x1 DUP3 ADD PUSH1 0x20 DUP3 ADD MLOAD DUP1 MLOAD SWAP1 PUSH1 0x1 PUSH1 0x1 PUSH1 0x40 SHL SUB DUP3 GT PUSH2 0x679 JUMPI DUP2 SWAP1 PUSH2 0x282 DUP5 SLOAD PUSH2 0x10BE JUMP JUMPDEST PUSH1 0x1F DUP2 GT PUSH2 0xAC9 JUMPI JUMPDEST POP PUSH1 0x20 SWAP1 PUSH1 0x1F DUP4 GT PUSH1 0x1 EQ PUSH2 0xA64 JUMPI PUSH1 0x0 SWAP3 PUSH2 0xA59 JUMPI JUMPDEST POP POP DUP2 PUSH1 0x1 SHL SWAP2 PUSH1 0x0 NOT SWAP1 PUSH1 0x3 SHL SHR NOT AND OR SWAP1 SSTORE JUMPDEST PUSH1 0x2 DUP3 ADD PUSH1 0x40 DUP3 ADD MLOAD DUP1 MLOAD SWAP1 PUSH1 0x1 PUSH1 0x1 PUSH1 0x40 SHL SUB DUP3 GT PUSH2 0x679 JUMPI DUP2 SWAP1 PUSH2 0x2DD DUP5 SLOAD PUSH2 0x10BE JUMP JUMPDEST PUSH1 0x1F DUP2 GT PUSH2 0xA06 JUMPI JUMPDEST POP PUSH1 0x20 SWAP1 PUSH1 0x1F DUP4 GT PUSH1 0x1 EQ PUSH2 0x9A1 JUMPI PUSH1 0x0 SWAP3 PUSH2 0x996 JUMPI JUMPDEST POP POP DUP2 PUSH1 0x1 SHL SWAP2 PUSH1 0x0 NOT SWAP1 PUSH1 0x3 SHL SHR NOT AND OR SWAP1 SSTORE JUMPDEST PUSH1 0x3 DUP3 ADD PUSH1 0x60 DUP3 ADD MLOAD DUP1 MLOAD SWAP1 PUSH1 0x1 PUSH1 0x1 PUSH1 0x40 SHL SUB DUP3 GT PUSH2 0x679 JUMPI DUP2 SWAP1 PUSH2 0x338 DUP5 SLOAD PUSH2 0x10BE JUMP JUMPDEST PUSH1 0x1F DUP2 GT PUSH2 0x943 JUMPI JUMPDEST POP PUSH1 0x20 SWAP1 PUSH1 0x1F DUP4 GT PUSH1 0x1 EQ PUSH2 0x8DE JUMPI PUSH1 0x0 SWAP3 PUSH2 0x8D3 JUMPI JUMPDEST POP POP DUP2 PUSH1 0x1 SHL SWAP2 PUSH1 0x0 NOT SWAP1 PUSH1 0x3 SHL SHR NOT AND OR SWAP1 SSTORE JUMPDEST PUSH1 0x80 DUP2 ADD MLOAD PUSH1 0x4 DUP4 ADD SSTORE PUSH1 0x5 DUP3 ADD PUSH1 0xA0 DUP3 ADD MLOAD DUP1 MLOAD SWAP1 PUSH1 0x1 PUSH1 0x1 PUSH1 0x40 SHL SUB DUP3 GT PUSH2 0x679 JUMPI DUP2 SWAP1 PUSH2 0x39D DUP5 SLOAD PUSH2 0x10BE JUMP JUMPDEST PUSH1 0x1F DUP2 GT PUSH2 0x880 JUMPI JUMPDEST POP PUSH1 0x20 SWAP1 PUSH1 0x1F DUP4 GT PUSH1 0x1 EQ PUSH2 0x81B JUMPI PUSH1 0x0 SWAP3 PUSH2 0x810 JUMPI JUMPDEST POP POP DUP2 PUSH1 0x1 SHL SWAP2 PUSH1 0x0 NOT SWAP1 PUSH1 0x3 SHL SHR NOT AND OR SWAP1 SSTORE JUMPDEST PUSH1 0x6 DUP3 ADD PUSH1 0xC0 DUP3 ADD MLOAD DUP1 MLOAD SWAP1 PUSH1 0x1 PUSH1 0x1 PUSH1 0x40 SHL SUB DUP3 GT PUSH2 0x679 JUMPI DUP2 SWAP1 PUSH2 0x3F8 DUP5 SLOAD PUSH2 0x10BE JUMP JUMPDEST PUSH1 0x1F DUP2 GT PUSH2 0x7BD JUMPI JUMPDEST POP PUSH1 0x20 SWAP1 PUSH1 0x1F DUP4 GT PUSH1 0x1 EQ PUSH2 0x758 JUMPI PUSH1 0x0 SWAP3 PUSH2 0x74D JUMPI JUMPDEST POP POP DUP2 PUSH1 0x1 SHL SWAP2 PUSH1 0x0 NOT SWAP1 PUSH1 0x3 SHL SHR NOT AND OR SWAP1 SSTORE JUMPDEST PUSH1 0xE0 DUP2 ADD MLOAD PUSH1 0x7 DUP4 ADD SSTORE PUSH2 0x100 DUP2 ADD MLOAD PUSH1 0x8 DUP4 ADD DUP1 SLOAD PUSH2 0x120 DUP5 ADD MLOAD PUSH1 0xFF PUSH1 0xA0 SHL SWAP1 ISZERO ISZERO PUSH1 0xA0 SHL AND PUSH1 0x1 PUSH1 0x1 PUSH1 0xA0 SHL SUB SWAP1 SWAP4 AND PUSH1 0x1 PUSH1 0x1 PUSH1 0xA8 SHL SUB NOT SWAP1 SWAP2 AND OR SWAP2 SWAP1 SWAP2 OR SWAP1 SSTORE PUSH2 0x140 DUP2 ADD MLOAD PUSH1 0x9 DUP4 ADD SSTORE PUSH2 0x160 DUP2 ADD MLOAD PUSH1 0xA DUP4 ADD SSTORE PUSH2 0x180 ADD MLOAD DUP1 MLOAD PUSH1 0xB DUP4 ADD SWAP2 PUSH1 0x1 PUSH1 0x1 PUSH1 0x40 SHL SUB DUP3 GT PUSH2 0x679 JUMPI PUSH2 0x4AD DUP4 SLOAD PUSH2 0x10BE JUMP JUMPDEST PUSH1 0x1F DUP2 GT PUSH2 0x705 JUMPI JUMPDEST POP PUSH1 0x20 SWAP1 PUSH1 0x1F DUP4 GT PUSH1 0x1 EQ PUSH2 0x69A JUMPI PUSH1 0xC SWAP5 SWAP4 SWAP3 SWAP2 PUSH1 0x0 SWAP2 DUP4 PUSH2 0x68F JUMPI JUMPDEST POP POP DUP2 PUSH1 0x1 SHL SWAP2 PUSH1 0x0 NOT SWAP1 PUSH1 0x3 SHL SHR NOT AND OR SWAP1 SSTORE JUMPDEST ADD SWAP2 MLOAD SWAP2 DUP3 MLOAD PUSH1 0x1 PUSH1 0x1 PUSH1 0x40 SHL SUB DUP2 GT PUSH2 0x679 JUMPI PUSH2 0x507 DUP3 SLOAD PUSH2 0x10BE JUMP JUMPDEST PUSH1 0x1F DUP2 GT PUSH2 0x631 JUMPI JUMPDEST POP PUSH1 0x20 PUSH1 0x1F DUP3 GT PUSH1 0x1 EQ PUSH2 0x5CC JUMPI DUP2 SWAP3 SWAP4 SWAP5 PUSH1 0x0 SWAP3 PUSH2 0x5C1 JUMPI JUMPDEST POP POP DUP2 PUSH1 0x1 SHL SWAP2 PUSH1 0x0 NOT SWAP1 PUSH1 0x3 SHL SHR NOT AND OR SWAP1 SSTORE JUMPDEST PUSH1 0x0 SLOAD PUSH1 0x0 NOT DUP2 ADD SWAP1 DUP2 GT PUSH2 0x5AB JUMPI PUSH1 0x40 MLOAD PUSH1 0x20 DUP2 DUP5 MLOAD PUSH2 0x563 DUP2 DUP4 DUP6 DUP10 ADD PUSH2 0xFDA JUMP JUMPDEST DUP2 ADD PUSH1 0x1 DUP2 MSTORE SUB ADD SWAP1 KECCAK256 SSTORE PUSH32 0xF5A6C84B3F6AB37509465BF68BCAE799C9AC4C1EF656DB5FA4D4FB5EDA2620A9 PUSH1 0x40 MLOAD PUSH1 0x20 DUP2 MSTORE DUP1 PUSH2 0x5A6 CALLER SWAP5 PUSH1 0x20 DUP4 ADD SWAP1 PUSH2 0xFFD JUMP JUMPDEST SUB SWAP1 LOG2 STOP JUMPDEST PUSH4 0x4E487B71 PUSH1 0xE0 SHL PUSH1 0x0 MSTORE PUSH1 0x11 PUSH1 0x4 MSTORE PUSH1 0x24 PUSH1 0x0 REVERT JUMPDEST ADD MLOAD SWAP1 POP CODESIZE DUP1 PUSH2 0x52A JUMP JUMPDEST PUSH1 0x1F NOT DUP3 AND SWAP1 DUP4 PUSH1 0x0 MSTORE DUP1 PUSH1 0x0 KECCAK256 SWAP2 PUSH1 0x0 JUMPDEST DUP2 DUP2 LT PUSH2 0x619 JUMPI POP SWAP6 DUP4 PUSH1 0x1 SWAP6 SWAP7 SWAP8 LT PUSH2 0x600 JUMPI JUMPDEST POP POP POP DUP2 SHL ADD SWAP1 SSTORE PUSH2 0x53F JUMP JUMPDEST ADD MLOAD PUSH1 0x0 NOT PUSH1 0xF8 DUP5 PUSH1 0x3 SHL AND SHR NOT AND SWAP1 SSTORE CODESIZE DUP1 DUP1 PUSH2 0x5F3 JUMP JUMPDEST SWAP2 SWAP3 PUSH1 0x20 PUSH1 0x1 DUP2 SWAP3 DUP7 DUP12 ADD MLOAD DUP2 SSTORE ADD SWAP5 ADD SWAP3 ADD PUSH2 0x5DE JUMP JUMPDEST DUP3 PUSH1 0x0 MSTORE PUSH1 0x20 PUSH1 0x0 KECCAK256 PUSH1 0x1F DUP4 ADD PUSH1 0x5 SHR DUP2 ADD SWAP2 PUSH1 0x20 DUP5 LT PUSH2 0x66F JUMPI JUMPDEST PUSH1 0x1F ADD PUSH1 0x5 SHR ADD SWAP1 JUMPDEST DUP2 DUP2 LT PUSH2 0x663 JUMPI POP PUSH2 0x510 JUMP JUMPDEST PUSH1 0x0 DUP2 SSTORE PUSH1 0x1 ADD PUSH2 0x656 JUMP JUMPDEST SWAP1 SWAP2 POP DUP2 SWAP1 PUSH2 0x64D JUMP JUMPDEST PUSH4 0x4E487B71 PUSH1 0xE0 SHL PUSH1 0x0 MSTORE PUSH1 0x41 PUSH1 0x4 MSTORE PUSH1 0x24 PUSH1 0x0 REVERT JUMPDEST ADD MLOAD SWAP1 POP CODESIZE DUP1 PUSH2 0x4D4 JUMP JUMPDEST SWAP1 PUSH1 0x1F NOT DUP4 AND SWAP2 DUP5 PUSH1 0x0 MSTORE DUP2 PUSH1 0x0 KECCAK256 SWAP3 PUSH1 0x0 JUMPDEST DUP2 DUP2 LT PUSH2 0x6ED JUMPI POP SWAP2 PUSH1 0x1 SWAP4 SWAP2 DUP6 PUSH1 0xC SWAP9 SWAP8 SWAP7 SWAP5 LT PUSH2 0x6D4 JUMPI JUMPDEST POP POP POP DUP2 SHL ADD SWAP1 SSTORE PUSH2 0x4E9 JUMP JUMPDEST ADD MLOAD PUSH1 0x0 NOT PUSH1 0xF8 DUP5 PUSH1 0x3 SHL AND SHR NOT AND SWAP1 SSTORE CODESIZE DUP1 DUP1 PUSH2 0x6C7 JUMP JUMPDEST SWAP3 SWAP4 PUSH1 0x20 PUSH1 0x1 DUP2 SWAP3 DUP8 DUP7 ADD MLOAD DUP2 SSTORE ADD SWAP6 ADD SWAP4 ADD PUSH2 0x6AD JUMP JUMPDEST DUP4 PUSH1 0x0 MSTORE PUSH1 0x20 PUSH1 0x0 KECCAK256 PUSH1 0x1F DUP5 ADD PUSH1 0x5 SHR DUP2 ADD SWAP2 PUSH1 0x20 DUP6 LT PUSH2 0x743 JUMPI JUMPDEST PUSH1 0x1F ADD PUSH1 0x5 SHR ADD SWAP1 JUMPDEST DUP2 DUP2 LT PUSH2 0x737 JUMPI POP PUSH2 0x4B6 JUMP JUMPDEST PUSH1 0x0 DUP2 SSTORE PUSH1 0x1 ADD PUSH2 0x72A JUMP JUMPDEST SWAP1 SWAP2 POP DUP2 SWAP1 PUSH2 0x721 JUMP JUMPDEST ADD MLOAD SWAP1 POP CODESIZE DUP1 PUSH2 0x418 JUMP JUMPDEST PUSH1 0x0 DUP6 DUP2 MSTORE DUP3 DUP2 KECCAK256 SWAP4 POP PUSH1 0x1F NOT DUP6 AND SWAP1 JUMPDEST DUP2 DUP2 LT PUSH2 0x7A5 JUMPI POP SWAP1 DUP5 PUSH1 0x1 SWAP6 SWAP5 SWAP4 SWAP3 LT PUSH2 0x78C JUMPI JUMPDEST POP POP POP DUP2 SHL ADD SWAP1 SSTORE PUSH2 0x42D JUMP JUMPDEST ADD MLOAD PUSH1 0x0 NOT PUSH1 0xF8 DUP5 PUSH1 0x3 SHL AND SHR NOT AND SWAP1 SSTORE CODESIZE DUP1 DUP1 PUSH2 0x77F JUMP JUMPDEST SWAP3 SWAP4 PUSH1 0x20 PUSH1 0x1 DUP2 SWAP3 DUP8 DUP7 ADD MLOAD DUP2 SSTORE ADD SWAP6 ADD SWAP4 ADD PUSH2 0x769 JUMP JUMPDEST SWAP1 SWAP2 POP DUP4 PUSH1 0x0 MSTORE PUSH1 0x20 PUSH1 0x0 KECCAK256 PUSH1 0x1F DUP5 ADD PUSH1 0x5 SHR DUP2 ADD SWAP2 PUSH1 0x20 DUP6 LT PUSH2 0x806 JUMPI JUMPDEST SWAP1 PUSH1 0x1F DUP6 SWAP5 SWAP4 SWAP3 ADD PUSH1 0x5 SHR ADD SWAP1 JUMPDEST DUP2 DUP2 LT PUSH2 0x7F7 JUMPI POP PUSH2 0x401 JUMP JUMPDEST PUSH1 0x0 DUP2 SSTORE DUP5 SWAP4 POP PUSH1 0x1 ADD PUSH2 0x7EA JUMP JUMPDEST SWAP1 SWAP2 POP DUP2 SWAP1 PUSH2 0x7DC JUMP JUMPDEST ADD MLOAD SWAP1 POP CODESIZE DUP1 PUSH2 0x3BD JUMP JUMPDEST PUSH1 0x0 DUP6 DUP2 MSTORE DUP3 DUP2 KECCAK256 SWAP4 POP PUSH1 0x1F NOT DUP6 AND SWAP1 JUMPDEST DUP2 DUP2 LT PUSH2 0x868 JUMPI POP SWAP1 DUP5 PUSH1 0x1 SWAP6 SWAP5 SWAP4 SWAP3 LT PUSH2 0x84F JUMPI JUMPDEST POP POP POP DUP2 SHL ADD SWAP1 SSTORE PUSH2 0x3D2 JUMP JUMPDEST ADD MLOAD PUSH1 0x0 NOT PUSH1 0xF8 DUP5 PUSH1 0x3 SHL AND SHR NOT AND SWAP1 SSTORE CODESIZE DUP1 DUP1 PUSH2 0x842 JUMP JUMPDEST SWAP3 SWAP4 PUSH1 0x20 PUSH1 0x1 DUP2 SWAP3 DUP8 DUP7 ADD MLOAD DUP2 SSTORE ADD SWAP6 ADD SWAP4 ADD PUSH2 0x82C JUMP JUMPDEST SWAP1 SWAP2 POP DUP4 PUSH1 0x0 MSTORE PUSH1 0x20 PUSH1 0x0 KECCAK256 PUSH1 0x1F DUP5 ADD PUSH1 0x5 SHR DUP2 ADD SWAP2 PUSH1 0x20 DUP6 LT PUSH2 0x8C9 JUMPI JUMPDEST SWAP1 PUSH1 0x1F DUP6 SWAP5 SWAP4 SWAP3 ADD PUSH1 0x5 SHR ADD SWAP1 JUMPDEST DUP2 DUP2 LT PUSH2 0x8BA JUMPI POP PUSH2 0x3A6 JUMP JUMPDEST PUSH1 0x0 DUP2 SSTORE DUP5 SWAP4 POP PUSH1 0x1 ADD PUSH2 0x8AD JUMP JUMPDEST SWAP1 SWAP2 POP DUP2 SWAP1 PUSH2 0x89F JUMP JUMPDEST ADD MLOAD SWAP1 POP CODESIZE DUP1 PUSH2 0x358 JUMP JUMPDEST PUSH1 0x0 DUP6 DUP2 MSTORE DUP3 DUP2 KECCAK256 SWAP4 POP PUSH1 0x1F NOT DUP6 AND SWAP1 JUMPDEST DUP2 DUP2 LT PUSH2 0x92B JUMPI POP SWAP1 DUP5 PUSH1 0x1 SWAP6 SWAP5 SWAP4 SWAP3 LT PUSH2 0x912 JUMPI JUMPDEST POP POP POP DUP2 SHL ADD SWAP1 SSTORE PUSH2 0x36D JUMP JUMPDEST ADD MLOAD PUSH1 0x0 NOT PUSH1 0xF8 DUP5 PUSH1 0x3 SHL AND SHR NOT AND SWAP1 SSTORE CODESIZE DUP1 DUP1 PUSH2 0x905 JUMP JUMPDEST SWAP3 SWAP4 PUSH1 0x20 PUSH1 0x1 DUP2 SWAP3 DUP8 DUP7 ADD MLOAD DUP2 SSTORE ADD SWAP6 ADD SWAP4 ADD PUSH2 0x8EF JUMP JUMPDEST SWAP1 SWAP2 POP DUP4 PUSH1 0x0 MSTORE PUSH1 0x20 PUSH1 0x0 KECCAK256 PUSH1 0x1F DUP5 ADD PUSH1 0x5 SHR DUP2 ADD SWAP2 PUSH1 0x20 DUP6 LT PUSH2 0x98C JUMPI JUMPDEST SWAP1 PUSH1 0x1F DUP6 SWAP5 SWAP4 SWAP3 ADD PUSH1 0x5 SHR ADD SWAP1 JUMPDEST DUP2 DUP2 LT PUSH2 0x97D JUMPI POP PUSH2 0x341 JUMP JUMPDEST PUSH1 0x0 DUP2 SSTORE DUP5 SWAP4 POP PUSH1 0x1 ADD PUSH2 0x970 JUMP JUMPDEST SWAP1 SWAP2 POP DUP2 SWAP1 PUSH2 0x962 JUMP JUMPDEST ADD MLOAD SWAP1 POP CODESIZE DUP1 PUSH2 0x2FD JUMP JUMPDEST PUSH1 0x0 DUP6 DUP2 MSTORE DUP3 DUP2 KECCAK256 SWAP4 POP PUSH1 0x1F NOT DUP6 AND SWAP1 JUMPDEST DUP2 DUP2 LT PUSH2 0x9EE JUMPI POP SWAP1 DUP5 PUSH1 0x1 SWAP6 SWAP5 SWAP4 SWAP3 LT PUSH2 0x9D5 JUMPI JUMPDEST POP POP POP DUP2 SHL ADD SWAP1 SSTORE PUSH2 0x312 JUMP JUMPDEST ADD MLOAD PUSH1 0x0 NOT PUSH1 0xF8 DUP5 PUSH1 0x3 SHL AND SHR NOT AND SWAP1 SSTORE CODESIZE DUP1 DUP1 PUSH2 0x9C8 JUMP JUMPDEST SWAP3 SWAP4 PUSH1 0x20 PUSH1 0x1 DUP2 SWAP3 DUP8 DUP7 ADD MLOAD DUP2 SSTORE ADD SWAP6 ADD SWAP4 ADD PUSH2 0x9B2 JUMP JUMPDEST SWAP1 SWAP2 POP DUP4 PUSH1 0x0 MSTORE PUSH1 0x20 PUSH1 0x0 KECCAK256 PUSH1 0x1F DUP5 ADD PUSH1 0x5 SHR DUP2 ADD SWAP2 PUSH1 0x20 DUP6 LT PUSH2 0xA4F JUMPI JUMPDEST SWAP1 PUSH1 0x1F DUP6 SWAP5 SWAP4 SWAP3 ADD PUSH1 0x5 SHR ADD SWAP1 JUMPDEST DUP2 DUP2 LT PUSH2 0xA40 JUMPI POP PUSH2 0x2E6 JUMP JUMPDEST PUSH1 0x0 DUP2 SSTORE DUP5 SWAP4 POP PUSH1 0x1 ADD PUSH2 0xA33 JUMP JUMPDEST SWAP1 SWAP2 POP DUP2 SWAP1 PUSH2 0xA25 JUMP JUMPDEST ADD MLOAD SWAP1 POP CODESIZE DUP1 PUSH2 0x2A2 JUMP JUMPDEST PUSH1 0x0 DUP6 DUP2 MSTORE DUP3 DUP2 KECCAK256 SWAP4 POP PUSH1 0x1F NOT DUP6 AND SWAP1 JUMPDEST DUP2 DUP2 LT PUSH2 0xAB1 JUMPI POP SWAP1 DUP5 PUSH1 0x1 SWAP6 SWAP5 SWAP4 SWAP3 LT PUSH2 0xA98 JUMPI JUMPDEST POP POP POP DUP2 SHL ADD SWAP1 SSTORE PUSH2 0x2B7 JUMP JUMPDEST ADD MLOAD PUSH1 0x0 NOT PUSH1 0xF8 DUP5 PUSH1 0x3 SHL AND SHR NOT AND SWAP1 SSTORE CODESIZE DUP1 DUP1 PUSH2 0xA8B JUMP JUMPDEST SWAP3 SWAP4 PUSH1 0x20 PUSH1 0x1 DUP2 SWAP3 DUP8 DUP7 ADD MLOAD DUP2 SSTORE ADD SWAP6 ADD SWAP4 ADD PUSH2 0xA75 JUMP JUMPDEST SWAP1 SWAP2 POP DUP4 PUSH1 0x0 MSTORE PUSH1 0x20 PUSH1 0x0 KECCAK256 PUSH1 0x1F DUP5 ADD PUSH1 0x5 SHR DUP2 ADD SWAP2 PUSH1 0x20 DUP6 LT PUSH2 0xB12 JUMPI JUMPDEST SWAP1 PUSH1 0x1F DUP6 SWAP5 SWAP4 SWAP3 ADD PUSH1 0x5 SHR ADD SWAP1 JUMPDEST DUP2 DUP2 LT PUSH2 0xB03 JUMPI POP PUSH2 0x28B JUMP JUMPDEST PUSH1 0x0 DUP2 SSTORE DUP5 SWAP4 POP PUSH1 0x1 ADD PUSH2 0xAF6 JUMP JUMPDEST SWAP1 SWAP2 POP DUP2 SWAP1 PUSH2 0xAE8 JUMP JUMPDEST ADD MLOAD SWAP1 POP CODESIZE DUP1 PUSH2 0x247 JUMP JUMPDEST PUSH1 0x0 DUP7 DUP2 MSTORE DUP3 DUP2 KECCAK256 SWAP4 POP PUSH1 0x1F NOT DUP6 AND SWAP1 JUMPDEST DUP2 DUP2 LT PUSH2 0xB74 JUMPI POP SWAP1 DUP5 PUSH1 0x1 SWAP6 SWAP5 SWAP4 SWAP3 LT PUSH2 0xB5B JUMPI JUMPDEST POP POP POP DUP2 SHL ADD DUP3 SSTORE PUSH2 0x25C JUMP JUMPDEST ADD MLOAD PUSH1 0x0 NOT PUSH1 0xF8 DUP5 PUSH1 0x3 SHL AND SHR NOT AND SWAP1 SSTORE CODESIZE DUP1 DUP1 PUSH2 0xB4E JUMP JUMPDEST SWAP3 SWAP4 PUSH1 0x20 PUSH1 0x1 DUP2 SWAP3 DUP8 DUP7 ADD MLOAD DUP2 SSTORE ADD SWAP6 ADD SWAP4 ADD PUSH2 0xB38 JUMP JUMPDEST SWAP1 SWAP2 POP DUP5 PUSH1 0x0 MSTORE PUSH1 0x20 PUSH1 0x0 KECCAK256 PUSH1 0x1F DUP5 ADD PUSH1 0x5 SHR DUP2 ADD PUSH1 0x20 DUP6 LT PUSH2 0xBD5 JUMPI JUMPDEST SWAP1 DUP5 SWAP4 SWAP3 SWAP2 JUMPDEST PUSH1 0x1F DUP4 ADD PUSH1 0x5 SHR DUP3 ADD DUP2 LT PUSH2 0xBC6 JUMPI POP POP PUSH2 0x230 JUMP JUMPDEST PUSH1 0x0 DUP2 SSTORE DUP6 SWAP5 POP PUSH1 0x1 ADD PUSH2 0xBB0 JUMP JUMPDEST POP DUP1 PUSH2 0xBAA JUMP JUMPDEST PUSH4 0x4E487B71 PUSH1 0xE0 SHL PUSH1 0x0 MSTORE PUSH1 0x0 PUSH1 0x4 MSTORE PUSH1 0x24 PUSH1 0x0 REVERT JUMPDEST PUSH1 0x0 DUP1 REVERT JUMPDEST CALLVALUE PUSH2 0xBF2 JUMPI PUSH1 0x20 CALLDATASIZE PUSH1 0x3 NOT ADD SLT PUSH2 0xBF2 JUMPI PUSH1 0x4 CALLDATALOAD PUSH1 0x1 PUSH1 0x1 PUSH1 0x40 SHL SUB DUP2 GT PUSH2 0xBF2 JUMPI PUSH2 0xCAB PUSH2 0xC4B PUSH32 0x9E877846FC0246EEBEC1BD959D42BA4E886602C08B0D4A4983669824405404DD SWAP3 CALLDATASIZE SWAP1 PUSH1 0x4 ADD PUSH2 0xF84 JUMP JUMPDEST PUSH1 0x8 PUSH2 0xC82 PUSH1 0x40 MLOAD PUSH1 0x20 DUP2 DUP6 MLOAD PUSH2 0xC65 DUP2 DUP4 DUP6 DUP11 ADD PUSH2 0xFDA JUMP JUMPDEST DUP2 ADD PUSH1 0x1 DUP2 MSTORE SUB ADD SWAP1 KECCAK256 SLOAD PUSH2 0xC7D PUSH1 0x0 SLOAD DUP3 LT PUSH2 0x1022 JUMP JUMPDEST PUSH2 0x106E JUMP JUMPDEST POP ADD DUP1 SLOAD PUSH1 0xFF PUSH1 0xA0 SHL NOT AND PUSH1 0x1 PUSH1 0xA0 SHL OR SWAP1 SSTORE PUSH1 0x40 MLOAD PUSH1 0x20 DUP1 DUP3 MSTORE SWAP1 SWAP3 DUP4 SWAP3 SWAP1 SWAP2 DUP4 ADD SWAP1 PUSH2 0xFFD JUMP JUMPDEST SUB SWAP1 LOG1 STOP JUMPDEST CALLVALUE PUSH2 0xBF2 JUMPI PUSH1 0x0 CALLDATASIZE PUSH1 0x3 NOT ADD SLT PUSH2 0xBF2 JUMPI PUSH1 0x0 SLOAD PUSH2 0xCCD DUP2 PUSH2 0x119C JUMP JUMPDEST SWAP1 PUSH2 0xCDB PUSH1 0x40 MLOAD SWAP3 DUP4 PUSH2 0xF63 JUMP JUMPDEST DUP1 DUP3 MSTORE PUSH1 0x1F NOT PUSH2 0xCEA DUP3 PUSH2 0x119C JUMP JUMPDEST ADD PUSH1 0x0 JUMPDEST DUP2 DUP2 LT PUSH2 0xD9D JUMPI POP POP PUSH1 0x0 JUMPDEST DUP2 DUP2 LT PUSH2 0xD69 JUMPI DUP3 PUSH1 0x40 MLOAD DUP1 SWAP2 PUSH1 0x20 DUP3 ADD PUSH1 0x20 DUP4 MSTORE DUP2 MLOAD DUP1 SWAP2 MSTORE PUSH1 0x40 DUP4 ADD SWAP1 PUSH1 0x20 PUSH1 0x40 DUP3 PUSH1 0x5 SHL DUP7 ADD ADD SWAP4 ADD SWAP2 PUSH1 0x0 SWAP1 JUMPDEST DUP3 DUP3 LT PUSH2 0xD3A JUMPI POP POP POP POP SUB SWAP1 RETURN JUMPDEST SWAP2 SWAP4 PUSH1 0x1 SWAP2 SWAP4 SWAP6 POP PUSH1 0x20 PUSH2 0xD59 DUP2 SWAP3 PUSH1 0x3F NOT DUP11 DUP3 SUB ADD DUP7 MSTORE DUP9 MLOAD PUSH2 0xFFD JUMP JUMPDEST SWAP7 ADD SWAP3 ADD SWAP3 ADD DUP6 SWAP5 SWAP4 SWAP2 SWAP3 PUSH2 0xD2B JUMP JUMPDEST DUP1 PUSH2 0xD81 PUSH1 0x6 PUSH2 0xD7A PUSH1 0x1 SWAP5 PUSH2 0x106E JUMP JUMPDEST POP ADD PUSH2 0x10F8 JUMP JUMPDEST PUSH2 0xD8B DUP3 DUP7 PUSH2 0x11B3 JUMP JUMPDEST MSTORE PUSH2 0xD96 DUP2 DUP6 PUSH2 0x11B3 JUMP JUMPDEST POP ADD PUSH2 0xCFA JUMP JUMPDEST DUP1 PUSH1 0x60 PUSH1 0x20 DUP1 SWAP4 DUP8 ADD ADD MSTORE ADD PUSH2 0xCEE JUMP JUMPDEST CALLVALUE PUSH2 0xBF2 JUMPI PUSH1 0x20 CALLDATASIZE PUSH1 0x3 NOT ADD SLT PUSH2 0xBF2 JUMPI PUSH1 0x4 CALLDATALOAD PUSH1 0x1 PUSH1 0x1 PUSH1 0x40 SHL SUB DUP2 GT PUSH2 0xBF2 JUMPI PUSH2 0xC65 PUSH1 0x20 PUSH2 0xDE6 PUSH2 0xDF9 SWAP4 CALLDATASIZE SWAP1 PUSH1 0x4 ADD PUSH2 0xF84 JUMP JUMPDEST DUP2 PUSH1 0x40 MLOAD SWAP4 DUP3 DUP6 DUP1 SWAP5 MLOAD SWAP4 DUP5 SWAP3 ADD PUSH2 0xFDA JUMP JUMPDEST POP PUSH2 0x120 PUSH1 0x4 DUP3 ADD SLOAD PUSH1 0xFF PUSH1 0x7 DUP5 ADD SLOAD SWAP2 PUSH2 0xEA9 PUSH1 0x8 DUP7 ADD SLOAD SWAP2 PUSH2 0xE1C DUP8 PUSH2 0x10F8 JUMP JUMPDEST SWAP7 PUSH2 0xE96 PUSH2 0xE2C PUSH1 0x1 DUP4 ADD PUSH2 0x10F8 JUMP JUMPDEST SWAP2 PUSH2 0xE88 PUSH2 0xE3C PUSH1 0x2 DUP4 ADD PUSH2 0x10F8 JUMP JUMPDEST PUSH2 0xE7A PUSH2 0xE57 PUSH1 0x5 PUSH2 0xE50 PUSH1 0x3 DUP8 ADD PUSH2 0x10F8 JUMP JUMPDEST SWAP6 ADD PUSH2 0x10F8 JUMP JUMPDEST SWAP6 PUSH2 0xE6C PUSH1 0x40 MLOAD SWAP15 DUP16 SWAP15 DUP16 DUP2 DUP2 MSTORE ADD SWAP1 PUSH2 0xFFD JUMP JUMPDEST DUP14 DUP2 SUB PUSH1 0x20 DUP16 ADD MSTORE SWAP1 PUSH2 0xFFD JUMP JUMPDEST SWAP1 DUP12 DUP3 SUB PUSH1 0x40 DUP14 ADD MSTORE PUSH2 0xFFD JUMP JUMPDEST SWAP1 DUP10 DUP3 SUB PUSH1 0x60 DUP12 ADD MSTORE PUSH2 0xFFD JUMP JUMPDEST SWAP2 PUSH1 0x80 DUP9 ADD MSTORE DUP7 DUP3 SUB PUSH1 0xA0 DUP9 ADD MSTORE PUSH2 0xFFD JUMP JUMPDEST PUSH1 0xC0 DUP6 ADD SWAP4 SWAP1 SWAP4 MSTORE PUSH1 0x1 PUSH1 0x1 PUSH1 0xA0 SHL SUB DUP2 AND PUSH1 0xE0 DUP6 ADD MSTORE PUSH1 0xA0 SHR AND ISZERO ISZERO PUSH2 0x100 DUP4 ADD MSTORE SUB SWAP1 RETURN JUMPDEST CALLVALUE PUSH2 0xBF2 JUMPI PUSH1 0x20 CALLDATASIZE PUSH1 0x3 NOT ADD SLT PUSH2 0xBF2 JUMPI PUSH1 0x4 CALLDATALOAD PUSH1 0x1 PUSH1 0x1 PUSH1 0x40 SHL SUB DUP2 GT PUSH2 0xBF2 JUMPI PUSH2 0xC65 PUSH1 0x20 PUSH2 0xDE6 PUSH2 0xF08 SWAP4 CALLDATASIZE SWAP1 PUSH1 0x4 ADD PUSH2 0xF84 JUMP JUMPDEST POP PUSH1 0x9 DUP2 ADD SLOAD PUSH2 0xF5F PUSH1 0xA DUP4 ADD SLOAD SWAP3 PUSH2 0xF51 PUSH2 0xF32 PUSH1 0xC PUSH2 0xF2B PUSH1 0xB DUP6 ADD PUSH2 0x10F8 JUMP JUMPDEST SWAP4 ADD PUSH2 0x10F8 JUMP JUMPDEST SWAP2 PUSH1 0x40 MLOAD SWAP6 DUP7 SWAP6 DUP7 MSTORE PUSH1 0x20 DUP7 ADD MSTORE PUSH1 0x80 PUSH1 0x40 DUP7 ADD MSTORE PUSH1 0x80 DUP6 ADD SWAP1 PUSH2 0xFFD JUMP JUMPDEST SWAP1 DUP4 DUP3 SUB PUSH1 0x60 DUP6 ADD MSTORE PUSH2 0xFFD JUMP JUMPDEST SUB SWAP1 RETURN JUMPDEST SWAP1 PUSH1 0x1F DUP1 NOT SWAP2 ADD AND DUP2 ADD SWAP1 DUP2 LT PUSH1 0x1 PUSH1 0x1 PUSH1 0x40 SHL SUB DUP3 GT OR PUSH2 0x679 JUMPI PUSH1 0x40 MSTORE JUMP JUMPDEST DUP2 PUSH1 0x1F DUP3 ADD SLT ISZERO PUSH2 0xBF2 JUMPI DUP1 CALLDATALOAD SWAP1 PUSH1 0x1 PUSH1 0x1 PUSH1 0x40 SHL SUB DUP3 GT PUSH2 0x679 JUMPI PUSH1 0x40 MLOAD SWAP3 PUSH2 0xFB8 PUSH1 0x1F DUP5 ADD PUSH1 0x1F NOT AND PUSH1 0x20 ADD DUP6 PUSH2 0xF63 JUMP JUMPDEST DUP3 DUP5 MSTORE PUSH1 0x20 DUP4 DUP4 ADD ADD GT PUSH2 0xBF2 JUMPI DUP2 PUSH1 0x0 SWAP3 PUSH1 0x20 DUP1 SWAP4 ADD DUP4 DUP7 ADD CALLDATACOPY DUP4 ADD ADD MSTORE SWAP1 JUMP JUMPDEST PUSH1 0x0 JUMPDEST DUP4 DUP2 LT PUSH2 0xFED JUMPI POP POP PUSH1 0x0 SWAP2 ADD MSTORE JUMP JUMPDEST DUP2 DUP2 ADD MLOAD DUP4 DUP3 ADD MSTORE PUSH1 0x20 ADD PUSH2 0xFDD JUMP JUMPDEST SWAP1 PUSH1 0x20 SWAP2 PUSH2 0x1016 DUP2 MLOAD DUP1 SWAP3 DUP2 DUP6 MSTORE DUP6 DUP1 DUP7 ADD SWAP2 ADD PUSH2 0xFDA JUMP JUMPDEST PUSH1 0x1F ADD PUSH1 0x1F NOT AND ADD ADD SWAP1 JUMP JUMPDEST ISZERO PUSH2 0x1029 JUMPI JUMP JUMPDEST PUSH1 0x40 MLOAD PUSH3 0x461BCD PUSH1 0xE5 SHL DUP2 MSTORE PUSH1 0x20 PUSH1 0x4 DUP3 ADD MSTORE PUSH1 0x18 PUSH1 0x24 DUP3 ADD MSTORE PUSH32 0x4772696576616E636520646F6573206E6F742065786973740000000000000000 PUSH1 0x44 DUP3 ADD MSTORE PUSH1 0x64 SWAP1 REVERT JUMPDEST PUSH1 0x0 SLOAD DUP2 LT ISZERO PUSH2 0x10A8 JUMPI PUSH1 0x0 DUP1 DUP1 MSTORE PUSH1 0xD SWAP2 SWAP1 SWAP2 MUL PUSH32 0x290DECD9548B62A8D60345A988386FC84BA6BC95484008F6362F93160EF3E563 ADD SWAP2 JUMP JUMPDEST PUSH4 0x4E487B71 PUSH1 0xE0 SHL PUSH1 0x0 MSTORE PUSH1 0x32 PUSH1 0x4 MSTORE PUSH1 0x24 PUSH1 0x0 REVERT JUMPDEST SWAP1 PUSH1 0x1 DUP3 DUP2 SHR SWAP3 AND DUP1 ISZERO PUSH2 0x10EE JUMPI JUMPDEST PUSH1 0x20 DUP4 LT EQ PUSH2 0x10D8 JUMPI JUMP JUMPDEST PUSH4 0x4E487B71 PUSH1 0xE0 SHL PUSH1 0x0 MSTORE PUSH1 0x22 PUSH1 0x4 MSTORE PUSH1 0x24 PUSH1 0x0 REVERT JUMPDEST SWAP2 PUSH1 0x7F AND SWAP2 PUSH2 0x10CD JUMP JUMPDEST SWAP1 PUSH1 0x40 MLOAD SWAP2 DUP3 PUSH1 0x0 DUP3 SLOAD SWAP3 PUSH2 0x110C DUP5 PUSH2 0x10BE JUMP JUMPDEST DUP1 DUP5 MSTORE SWAP4 PUSH1 0x1 DUP2 AND SWAP1 DUP2 ISZERO PUSH2 0x117A JUMPI POP PUSH1 0x1 EQ PUSH2 0x1133 JUMPI JUMPDEST POP PUSH2 0x1131 SWAP3 POP SUB DUP4 PUSH2 0xF63 JUMP JUMPDEST JUMP JUMPDEST SWAP1 POP PUSH1 0x0 SWAP3 SWAP2 SWAP3 MSTORE PUSH1 0x20 PUSH1 0x0 KECCAK256 SWAP1 PUSH1 0x0 SWAP2 JUMPDEST DUP2 DUP4 LT PUSH2 0x115E JUMPI POP POP SWAP1 PUSH1 0x20 PUSH2 0x1131 SWAP3 DUP3 ADD ADD CODESIZE PUSH2 0x1124 JUMP JUMPDEST PUSH1 0x20 SWAP2 SWAP4 POP DUP1 PUSH1 0x1 SWAP2 SLOAD DUP4 DUP6 DUP10 ADD ADD MSTORE ADD SWAP2 ADD SWAP1 SWAP2 DUP5 SWAP3 PUSH2 0x1145 JUMP JUMPDEST SWAP1 POP PUSH1 0x20 SWAP3 POP PUSH2 0x1131 SWAP5 SWAP2 POP PUSH1 0xFF NOT AND DUP3 DUP5 ADD MSTORE ISZERO ISZERO PUSH1 0x5 SHL DUP3 ADD ADD CODESIZE PUSH2 0x1124 JUMP JUMPDEST PUSH1 0x1 PUSH1 0x1 PUSH1 0x40 SHL SUB DUP2 GT PUSH2 0x679 JUMPI PUSH1 0x5 SHL PUSH1 0x20 ADD SWAP1 JUMP JUMPDEST DUP1 MLOAD DUP3 LT ISZERO PUSH2 0x10A8 JUMPI PUSH1 0x20 SWAP2 PUSH1 0x5 SHL ADD ADD SWAP1 JUMP INVALID LOG2 PUSH5 0x6970667358 0x22 SLT KECCAK256 0xB0 JUMP SWAP7 CREATE EXTCODEHASH SLT BASEFEE 0x2E SWAP2 PUSH28 0xCAEA5CB4DA880551618E9D6E48DDFA0C5C22B2AFC1DD64736F6C6343 STOP ADDMOD SHR STOP CALLER "},"methodIdentifiers":{"getAllTrackingIds()":"54cb24a4","getGrievanceBasic(string)":"1ad6550b","getGrievanceDetails(string)":"15e7e9ac","markResolved(string)":"ca3bd5d4","submitGrievance(string,string,string,string,uint256,string,string,uint256,uint256,string,string)":"e601539d"}}}}}