{"contracts/GrievanceRegistry{BASE}/src/Grievance.sol":{"GrievanceRegistry":{"abi":[{"anonymous":false,"inputs":[{"indexed":true,"internalType":"string","name":"trackingId","type":"string"},{"indexed":true,"internalType":"address","name":"submitter","type":"address"},{"indexed":false,"internalType":"uint256","name":"timestamp","type":"uint256"}],"name":"GrievanceLogged","type":"event"},{"anonymous":false,"inputs":[{"indexed":true,"internalType":"string","name":"trackingId","type":"string"},{"indexed":false,"internalType":"uint256","name":"timestamp","type":"uint256"}],"name":"GrievanceResolved","type":"event"},{"inputs":[],"name":"getAllGrievances","outputs":[{"components":[{"internalType":"string","name":"title","type":"string"},{"internalType":"string","name":"description","type":"string"},{"internalType":"string","name":"category","type":"string"},{"internalType":"string","name":"location","type":"string"},{"internalType":"uint256","name":"mediaCount","type":"uint256"},{"internalType":"string","name":"priorityLevel","type":"string"},{"internalType":"uint256","name":"estimatedDays","type":"uint256"},{"internalType":"uint256","name":"fundAmount","type":"uint256"},{"internalType":"string","name":"currency","type":"string"},{"internalType":"string","name":"aiJustification","type":"string"},{"internalType":"string","name":"trackingId","type":"string"},{"internalType":"uint256","name":"timestamp","type":"uint256"},{"internalType":"address","name":"submitter","type":"address"},{"internalType":"bool","name":"resolved","type":"bool"}],"internalType":"struct GrievanceRegistry.Grievance[]","name":"","type":"tuple[]"}],"stateMutability":"view","type":"function"},{"inputs":[{"internalType":"string","name":"_trackingId","type":"string"}],"name":"getGrievance","outputs":[{"components":[{"internalType":"string","name":"title","type":"string"},{"internalType":"string","name":"description","type":"string"},{"internalType":"string","name":"category","type":"string"},{"internalType":"string","name":"location","type":"string"},{"internalType":"uint256","name":"mediaCount","type":"uint256"},{"internalType":"string","name":"priorityLevel","type":"string"},{"internalType":"uint256","name":"estimatedDays","type":"uint256"},{"internalType":"uint256","name":"fundAmount","type":"uint256"},{"internalType":"string","name":"currency","type":"string"},{"internalType":"string","name":"aiJustification","type":"string"},{"internalType":"string","name":"trackingId","type":"string"},{"internalType":"uint256","name":"timestamp","type":"uint256"},{"internalType":"address","name":"submitter","type":"address"},{"internalType":"bool","name":"resolved","type":"bool"}],"internalType":"struct GrievanceRegistry.Grievance","name":"","type":"tuple"}],"stateMutability":"view","type":"function"},{"inputs":[{"internalType":"uint256","name":"","type":"uint256"}],"name":"grievances","outputs":[{"internalType":"string","name":"title","type":"string"},{"internalType":"string","name":"description","type":"string"},{"internalType":"string","name":"category","type":"string"},{"internalType":"string","name":"location","type":"string"},{"internalType":"uint256","name":"mediaCount","type":"uint256"},{"internalType":"string","name":"priorityLevel","type":"string"},{"internalType":"uint256","name":"estimatedDays","type":"uint256"},{"internalType":"uint256","name":"fundAmount","type":"uint256"},{"internalType":"string","name":"currency","type":"string"},{"internalType":"string","name":"aiJustification","type":"string"},{"internalType":"string","name":"trackingId","type":"string"},{"internalType":"uint256","name":"timestamp","type":"uint256"},{"internalType":"address","name":"submitter","type":"address"},{"internalType":"bool","name":"resolved","type":"bool"}],"stateMutability":"view","type":"function"},{"inputs":[{"internalType":"string","name":"_trackingId","type":"string"}],"name":"markResolved","outputs":[],"stateMutability":"nonpayable","type":"function"},{"inputs":[{"internalType":"string","name":"_title","type":"string"},{"internalType":"string","name":"_description","type":"string"},{"internalType":"string","name":"_category","type":"string"},{"internalType":"string","name":"_location","type":"string"},{"internalType":"uint256","name":"_mediaCount","type":"uint256"},{"internalType":"string","name":"_priorityLevel","type":"string"},{"internalType":"uint256","name":"_estimatedDays","type":"uint256"},{"internalType":"uint256","name":"_fundAmount","type":"uint256"},{"internalType":"string","name":"_currency","type":"string"},{"internalType":"string","name":"_aiJustification","type":"string"},{"internalType":"string","name":"_trackingId","type":"string"}],"name":"submitGrievance","outputs":[],"stateMutability":"nonpayable","type":"function"},{"inputs":[{"internalType":"string","name":"","type":"string"}],"name":"trackingIdToIndex","outputs":[{"internalType":"uint256","name":"","type":"uint256"}],"stateMutability":"view","type":"function"}],"evm":{"bytecode":{"linkReferences":{},"object":"60808060405234601557611506908161001b8239f35b600080fdfe6080604052600436101561001257600080fd5b60003560e01c80631e671b6214610517578063356f1d75146103a65780639ecc78f71461034a578063b55d5a0614610262578063ca3bd5d41461016d5763e3f2cbd81461005e57600080fd5b34610168576000366003190112610168576000546001600160401b038111610152576040519061009460208260051b01836110e7565b808252602082019081600080527f290decd9548b62a8d60345a988386fc84ba6bc95484008f6362f93160ef3e5636000915b83831061013457848660405191829160208301906020845251809152604083019060408160051b85010192916000905b82821061010557505050500390f35b919360019193955060206101248192603f198a820301865288516112d4565b96019201920185949391926100f6565b600d6020600192610144856113ef565b8152019201920191906100c6565b634e487b7160e01b600052604160045260246000fd5b600080fd5b34610168576020366003190112610168576004356001600160401b0381116101685761019d903690600401611108565b60405160208183516101b2818385880161128c565b8101600181520301902054906101c78261115e565b50600c01546001600160a01b0316330361022d57600c6101e96102019361115e565b5001805460ff60a01b1916600160a01b1790556113cf565b7f660ceb0c1d7affa671261ba18cdfddbd938f1c4375cb51fbd647907532a223656020604051428152a2005b60405162461bcd60e51b815260206004820152600d60248201526c2737ba1039bab136b4ba3a32b960991b6044820152606490fd5b34610168576020366003190112610168576004356001600160401b0381116101685761033261032c61031c60206102a0610346953690600401611108565b60006101a06040516102b1816110cb565b6060815260608582015260606040820152606080820152826080820152606060a08201528260c08201528260e082015260606101008201526060610120820152606061014082015282610160820152826101808201520152816040519382858094519384920161128c565b810160018152030190205461115e565b506113ef565b6040519182916020835260208301906112d4565b0390f35b34610168576020366003190112610168576004356001600160401b03811161016857610393602061038081933690600401611108565b816040519382858094519384920161128c565b8101600181520301902054604051908152f35b3461016857602036600319011261016857600435600054811015610168576103cd9061115e565b506103d7816111e8565b6103e3600183016111e8565b916103f0600282016111e8565b6103fc600383016111e8565b600483015461040d600585016111e8565b60068501546007860154610423600888016111e8565b92610430600989016111e8565b9461043d600a8a016111e8565b96600b8a015499600c0154986040519c8d9c8d6101c081526101c001610462916112af565b8d810360208f0152610473916112af565b8c810360408e0152610484916112af565b8b810360608d0152610495916112af565b9060808b015289810360a08b01526104ac916112af565b9160c089015260e08801528681036101008801526104c9916112af565b8581036101208701526104db916112af565b8481036101408601526104ed916112af565b91610160840152600160a01b60019003811661018084015260a01c60ff1615156101a08301520390f35b3461016857610160366003190112610168576004356001600160401b03811161016857610548903690600401611108565b6024356001600160401b03811161016857610567903690600401611108565b6044356001600160401b03811161016857610586903690600401611108565b6064356001600160401b038111610168576105a5903690600401611108565b9160a4356001600160401b038111610168576105c5903690600401611108565b93610104356001600160401b038111610168576105e6903690600401611108565b93610124356001600160401b03811161016857610607903690600401611108565b610144356001600160401b03811161016857610627903690600401611108565b9586511561108f576040519361063c856110cb565b84526020840194855260408401958652606084019283526080840197608435895260a0850190815260c0850160c435815260e086019160e43583526101008701938452610120870194855261014087019a8a8c5261016088019642885261018089019a338c526101a08a019a60008c5260005468010000000000000000811015610152578060016106d0920160005561115e565b9b909b61107957518051906001600160401b038211610152578c82916106f682546111ae565b601f811161101c575b50602091601f8411600114610fb75750600092610fac575b50508160011b916000199060031b1c1916178b555b51805160018c01916001600160401b03821161015257819061074e84546111ae565b601f8111610f59575b50602090601f8311600114610ef457600092610ee9575b50508160011b916000199060031b1c19161790555b51805160028b01916001600160401b0382116101525781906107a584546111ae565b601f8111610e96575b50602090601f8311600114610e3157600092610e26575b50508160011b916000199060031b1c19161790555b51805160038a01916001600160401b0382116101525781906107fc84546111ae565b601f8111610dd3575b50602090601f8311600114610d6e57600092610d63575b50508160011b916000199060031b1c19161790555b51600488015551805160058801916001600160401b03821161015257819061085984546111ae565b601f8111610d10575b50602090601f8311600114610cab57600092610ca0575b50508160011b916000199060031b1c19161790555b51600686015551600785015551805160088501916001600160401b0382116101525781906108bc84546111ae565b601f8111610c4d575b50602090601f8311600114610be857600092610bdd575b50508160011b916000199060031b1c19161790555b51805160098401916001600160401b03821161015257819061091384546111ae565b601f8111610b8a575b50602090601f8311600114610b2557600092610b1a575b50508160011b916000199060031b1c19161790555b600a820195519586516001600160401b0381116101525761096982546111ae565b601f8111610ad2575b506020601f8211600114610a67578190600c96979899600092610a5c575b50508160011b916000199060031b1c19161790555b51600b82015592519201805491516001600160a81b03199092166001600160a01b03939093169290921790151560a01b60ff60a01b16179055600054600019810191908211610a4657610a17916040516020818451610a07818385890161128c565b81016001815203019020556113cf565b604051904282527f42066e02e05d70f0dcb2a02749eeff4bbea4d4d71599816318bde61f349af31f60203393a3005b634e487b7160e01b600052601160045260246000fd5b015190508980610990565b601f1982169883600052816000209960005b818110610aba575091600c9798999a91846001959410610aa1575b505050811b0190556109a5565b015160001960f88460031b161c19169055898080610a94565b838301518c556001909b019a60209384019301610a79565b826000526020600020601f830160051c81019160208410610b10575b601f0160051c01905b818110610b045750610972565b60008155600101610af7565b9091508190610aee565b015190508980610933565b60008581528281209350601f198516905b818110610b725750908460019594939210610b59575b505050811b019055610948565b015160001960f88460031b161c19169055898080610b4c565b92936020600181928786015181550195019301610b36565b909150836000526020600020601f840160051c81019160208510610bd3575b90601f859493920160051c01905b818110610bc4575061091c565b60008155849350600101610bb7565b9091508190610ba9565b015190508a806108dc565b60008581528281209350601f198516905b818110610c355750908460019594939210610c1c575b505050811b0190556108f1565b015160001960f88460031b161c191690558a8080610c0f565b92936020600181928786015181550195019301610bf9565b909150836000526020600020601f840160051c81019160208510610c96575b90601f859493920160051c01905b818110610c8757506108c5565b60008155849350600101610c7a565b9091508190610c6c565b015190508d80610879565b60008581528281209350601f198516905b818110610cf85750908460019594939210610cdf575b505050811b01905561088e565b015160001960f88460031b161c191690558d8080610cd2565b92936020600181928786015181550195019301610cbc565b909150836000526020600020601f840160051c81019160208510610d59575b90601f859493920160051c01905b818110610d4a5750610862565b60008155849350600101610d3d565b9091508190610d2f565b015190508f8061081c565b60008581528281209350601f198516905b818110610dbb5750908460019594939210610da2575b505050811b019055610831565b015160001960f88460031b161c191690558f8080610d95565b92936020600181928786015181550195019301610d7f565b909150836000526020600020601f840160051c81019160208510610e1c575b90601f859493920160051c01905b818110610e0d5750610805565b60008155849350600101610e00565b9091508190610df2565b0151905038806107c5565b60008581528281209350601f198516905b818110610e7e5750908460019594939210610e65575b505050811b0190556107da565b015160001960f88460031b161c19169055388080610e58565b92936020600181928786015181550195019301610e42565b909150836000526020600020601f840160051c81019160208510610edf575b90601f859493920160051c01905b818110610ed057506107ae565b60008155849350600101610ec3565b9091508190610eb5565b01519050388061076e565b60008581528281209350601f198516905b818110610f415750908460019594939210610f28575b505050811b019055610783565b015160001960f88460031b161c19169055388080610f1b565b92936020600181928786015181550195019301610f05565b909150836000526020600020601f840160051c81019160208510610fa2575b90601f859493920160051c01905b818110610f935750610757565b60008155849350600101610f86565b9091508190610f78565b015190503880610717565b60009081528281209350601f198516905b8181106110045750908460019594939210610feb575b505050811b018b5561072c565b015160001960f88460031b161c19169055388080610fde565b92936020600181928786015181550195019301610fc8565b919092506000526020600020601f840160051c8101916020851061106f575b918f9291601f8695930160051c01905b81811061105857506106ff565b90925060019193506000815501918e91849361104b565b909150819061103b565b634e487b7160e01b600052600060045260246000fd5b60405162461bcd60e51b8152602060048201526014602482015273151c9858dada5b99c81251081c995c5d5a5c995960621b6044820152606490fd5b6101c081019081106001600160401b0382111761015257604052565b90601f801991011681019081106001600160401b0382111761015257604052565b81601f82011215610168578035906001600160401b038211610152576040519261113c601f8401601f1916602001856110e7565b8284526020838301011161016857816000926020809301838601378301015290565b600054811015611198576000808052600d919091027f290decd9548b62a8d60345a988386fc84ba6bc95484008f6362f93160ef3e5630191565b634e487b7160e01b600052603260045260246000fd5b90600182811c921680156111de575b60208310146111c857565b634e487b7160e01b600052602260045260246000fd5b91607f16916111bd565b90604051918260008254926111fc846111ae565b808452936001811690811561126a5750600114611223575b50611221925003836110e7565b565b90506000929192526020600020906000915b81831061124e5750509060206112219282010138611214565b6020919350806001915483858901015201910190918492611235565b90506020925061122194915060ff191682840152151560051b82010138611214565b60005b83811061129f5750506000910152565b818101518382015260200161128f565b906020916112c88151809281855285808601910161128c565b601f01601f1916010190565b906101a0806113a561139161137d6113556113396113276113156113038b516101c08c526101c08c01906112af565b60208c01518b820360208d01526112af565b60408b01518a820360408c01526112af565b60608a015189820360608b01526112af565b6080890151608089015260a089015188820360a08a01526112af565b60c088015160c088015260e088015160e08801526101008801518782036101008901526112af565b6101208701518682036101208801526112af565b6101408601518582036101408701526112af565b6101608086015190850152610180808601516001600160a01b031690850152930151151591015290565b6113e79060206040519282848094519384920161128c565b810103902090565b906040516113fc816110cb565b6101a060ff600c839561140e816111e8565b855261141c600182016111e8565b602086015261142d600282016111e8565b604086015261143e600382016111e8565b606086015260048101546080860152611459600582016111e8565b60a0860152600681015460c0860152600781015460e086015261147e600882016111e8565b610100860152611490600982016111e8565b6101208601526114a2600a82016111e8565b610140860152600b81015461016086015201546001600160a01b03811661018085015260a01c16151591015256fea2646970667358221220f1e484bff0474280224eca2c8f793fbcd906218c9a978173acd0d6f81a5a83f664736f6c634300081c0033","opcodes":"PUSH1 0x80 DUP1 PUSH1 0x40 MSTORE CALLVALUE PUSH1 0x15 JUMPI PUSH2 0x1506 SWAP1 DUP2 PUSH2 0x1B DUP3 CODECOPY RETURN JUMPDEST PUSH1 0x0 DUP1 REVERT INVALID PUSH1 0x80 PUSH1 0x40 MSTORE PUSH1 0x4 CALLDATASIZE LT ISZERO PUSH2 0x12 JUMPI PUSH1 0x0 DUP1 REVERT JUMPDEST PUSH1 0x0 CALLDATALOAD PUSH1 0xE0 SHR DUP1 PUSH4 0x1E671B62 EQ PUSH2 0x517 JUMPI DUP1 PUSH4 0x356F1D75 EQ PUSH2 0x3A6 JUMPI DUP1 PUSH4 0x9ECC78F7 EQ PUSH2 0x34A JUMPI DUP1 PUSH4 0xB55D5A06 EQ PUSH2 0x262 JUMPI DUP1 PUSH4 0xCA3BD5D4 EQ PUSH2 0x16D JUMPI PUSH4 0xE3F2CBD8 EQ PUSH2 0x5E JUMPI PUSH1 0x0 DUP1 REVERT JUMPDEST CALLVALUE PUSH2 0x168 JUMPI PUSH1 0x0 CALLDATASIZE PUSH1 0x3 NOT ADD SLT PUSH2 0x168 JUMPI PUSH1 0x0 SLOAD PUSH1 0x1 PUSH1 0x1 PUSH1 0x40 SHL SUB DUP2 GT PUSH2 0x152 JUMPI PUSH1 0x40 MLOAD SWAP1 PUSH2 0x94 PUSH1 0x20 DUP3 PUSH1 0x5 SHL ADD DUP4 PUSH2 0x10E7 JUMP JUMPDEST DUP1 DUP3 MSTORE PUSH1 0x20 DUP3 ADD SWAP1 DUP2 PUSH1 0x0 DUP1 MSTORE PUSH32 0x290DECD9548B62A8D60345A988386FC84BA6BC95484008F6362F93160EF3E563 PUSH1 0x0 SWAP2 JUMPDEST DUP4 DUP4 LT PUSH2 0x134 JUMPI DUP5 DUP7 PUSH1 0x40 MLOAD SWAP2 DUP3 SWAP2 PUSH1 0x20 DUP4 ADD SWAP1 PUSH1 0x20 DUP5 MSTORE MLOAD DUP1 SWAP2 MSTORE PUSH1 0x40 DUP4 ADD SWAP1 PUSH1 0x40 DUP2 PUSH1 0x5 SHL DUP6 ADD ADD SWAP3 SWAP2 PUSH1 0x0 SWAP1 JUMPDEST DUP3 DUP3 LT PUSH2 0x105 JUMPI POP POP POP POP SUB SWAP1 RETURN JUMPDEST SWAP2 SWAP4 PUSH1 0x1 SWAP2 SWAP4 SWAP6 POP PUSH1 0x20 PUSH2 0x124 DUP2 SWAP3 PUSH1 0x3F NOT DUP11 DUP3 SUB ADD DUP7 MSTORE DUP9 MLOAD PUSH2 0x12D4 JUMP JUMPDEST SWAP7 ADD SWAP3 ADD SWAP3 ADD DUP6 SWAP5 SWAP4 SWAP2 SWAP3 PUSH2 0xF6 JUMP JUMPDEST PUSH1 0xD PUSH1 0x20 PUSH1 0x1 SWAP3 PUSH2 0x144 DUP6 PUSH2 0x13EF JUMP JUMPDEST DUP2 MSTORE ADD SWAP3 ADD SWAP3 ADD SWAP2 SWAP1 PUSH2 0xC6 JUMP JUMPDEST PUSH4 0x4E487B71 PUSH1 0xE0 SHL PUSH1 0x0 MSTORE PUSH1 0x41 PUSH1 0x4 MSTORE PUSH1 0x24 PUSH1 0x0 REVERT JUMPDEST PUSH1 0x0 DUP1 REVERT JUMPDEST CALLVALUE PUSH2 0x168 JUMPI PUSH1 0x20 CALLDATASIZE PUSH1 0x3 NOT ADD SLT PUSH2 0x168 JUMPI PUSH1 0x4 CALLDATALOAD PUSH1 0x1 PUSH1 0x1 PUSH1 0x40 SHL SUB DUP2 GT PUSH2 0x168 JUMPI PUSH2 0x19D SWAP1 CALLDATASIZE SWAP1 PUSH1 0x4 ADD PUSH2 0x1108 JUMP JUMPDEST PUSH1 0x40 MLOAD PUSH1 0x20 DUP2 DUP4 MLOAD PUSH2 0x1B2 DUP2 DUP4 DUP6 DUP9 ADD PUSH2 0x128C JUMP JUMPDEST DUP2 ADD PUSH1 0x1 DUP2 MSTORE SUB ADD SWAP1 KECCAK256 SLOAD SWAP1 PUSH2 0x1C7 DUP3 PUSH2 0x115E JUMP JUMPDEST POP PUSH1 0xC ADD SLOAD PUSH1 0x1 PUSH1 0x1 PUSH1 0xA0 SHL SUB AND CALLER SUB PUSH2 0x22D JUMPI PUSH1 0xC PUSH2 0x1E9 PUSH2 0x201 SWAP4 PUSH2 0x115E JUMP JUMPDEST POP ADD DUP1 SLOAD PUSH1 0xFF PUSH1 0xA0 SHL NOT AND PUSH1 0x1 PUSH1 0xA0 SHL OR SWAP1 SSTORE PUSH2 0x13CF JUMP JUMPDEST PUSH32 0x660CEB0C1D7AFFA671261BA18CDFDDBD938F1C4375CB51FBD647907532A22365 PUSH1 0x20 PUSH1 0x40 MLOAD TIMESTAMP DUP2 MSTORE LOG2 STOP JUMPDEST PUSH1 0x40 MLOAD PUSH3 0x461BCD PUSH1 0xE5 SHL DUP2 MSTORE PUSH1 0x20 PUSH1 0x4 DUP3 ADD MSTORE PUSH1 0xD PUSH1 0x24 DUP3 ADD MSTORE PUSH13 0x2737BA1039BAB136B4BA3A32B9 PUSH1 0x99 SHL PUSH1 0x44 DUP3 ADD MSTORE PUSH1 0x64 SWAP1 REVERT JUMPDEST CALLVALUE PUSH2 0x168 JUMPI PUSH1 0x20 CALLDATASIZE PUSH1 0x3 NOT ADD SLT PUSH2 0x168 JUMPI PUSH1 0x4 CALLDATALOAD PUSH1 0x1 PUSH1 0x1 PUSH1 0x40 SHL SUB DUP2 GT PUSH2 0x168 JUMPI PUSH2 0x332 PUSH2 0x32C PUSH2 0x31C PUSH1 0x20 PUSH2 0x2A0 PUSH2 0x346 SWAP6 CALLDATASIZE SWAP1 PUSH1 0x4 ADD PUSH2 0x1108 JUMP JUMPDEST PUSH1 0x0 PUSH2 0x1A0 PUSH1 0x40 MLOAD PUSH2 0x2B1 DUP2 PUSH2 0x10CB JUMP JUMPDEST PUSH1 0x60 DUP2 MSTORE PUSH1 0x60 DUP6 DUP3 ADD MSTORE PUSH1 0x60 PUSH1 0x40 DUP3 ADD MSTORE PUSH1 0x60 DUP1 DUP3 ADD MSTORE DUP3 PUSH1 0x80 DUP3 ADD MSTORE PUSH1 0x60 PUSH1 0xA0 DUP3 ADD MSTORE DUP3 PUSH1 0xC0 DUP3 ADD MSTORE DUP3 PUSH1 0xE0 DUP3 ADD MSTORE PUSH1 0x60 PUSH2 0x100 DUP3 ADD MSTORE PUSH1 0x60 PUSH2 0x120 DUP3 ADD MSTORE PUSH1 0x60 PUSH2 0x140 DUP3 ADD MSTORE DUP3 PUSH2 0x160 DUP3 ADD MSTORE DUP3 PUSH2 0x180 DUP3 ADD MSTORE ADD MSTORE DUP2 PUSH1 0x40 MLOAD SWAP4 DUP3 DUP6 DUP1 SWAP5 MLOAD SWAP4 DUP5 SWAP3 ADD PUSH2 0x128C JUMP JUMPDEST DUP2 ADD PUSH1 0x1 DUP2 MSTORE SUB ADD SWAP1 KECCAK256 SLOAD PUSH2 0x115E JUMP JUMPDEST POP PUSH2 0x13EF JUMP JUMPDEST PUSH1 0x40 MLOAD SWAP2 DUP3 SWAP2 PUSH1 0x20 DUP4 MSTORE PUSH1 0x20 DUP4 ADD SWAP1 PUSH2 0x12D4 JUMP JUMPDEST SUB SWAP1 RETURN JUMPDEST CALLVALUE PUSH2 0x168 JUMPI PUSH1 0x20 CALLDATASIZE PUSH1 0x3 NOT ADD SLT PUSH2 0x168 JUMPI PUSH1 0x4 CALLDATALOAD PUSH1 0x1 PUSH1 0x1 PUSH1 0x40 SHL SUB DUP2 GT PUSH2 0x168 JUMPI PUSH2 0x393 PUSH1 0x20 PUSH2 0x380 DUP2 SWAP4 CALLDATASIZE SWAP1 PUSH1 0x4 ADD PUSH2 0x1108 JUMP JUMPDEST DUP2 PUSH1 0x40 MLOAD SWAP4 DUP3 DUP6 DUP1 SWAP5 MLOAD SWAP4 DUP5 SWAP3 ADD PUSH2 0x128C JUMP JUMPDEST DUP2 ADD PUSH1 0x1 DUP2 MSTORE SUB ADD SWAP1 KECCAK256 SLOAD PUSH1 0x40 MLOAD SWAP1 DUP2 MSTORE RETURN JUMPDEST CALLVALUE PUSH2 0x168 JUMPI PUSH1 0x20 CALLDATASIZE PUSH1 0x3 NOT ADD SLT PUSH2 0x168 JUMPI PUSH1 0x4 CALLDATALOAD PUSH1 0x0 SLOAD DUP2 LT ISZERO PUSH2 0x168 JUMPI PUSH2 0x3CD SWAP1 PUSH2 0x115E JUMP JUMPDEST POP PUSH2 0x3D7 DUP2 PUSH2 0x11E8 JUMP JUMPDEST PUSH2 0x3E3 PUSH1 0x1 DUP4 ADD PUSH2 0x11E8 JUMP JUMPDEST SWAP2 PUSH2 0x3F0 PUSH1 0x2 DUP3 ADD PUSH2 0x11E8 JUMP JUMPDEST PUSH2 0x3FC PUSH1 0x3 DUP4 ADD PUSH2 0x11E8 JUMP JUMPDEST PUSH1 0x4 DUP4 ADD SLOAD PUSH2 0x40D PUSH1 0x5 DUP6 ADD PUSH2 0x11E8 JUMP JUMPDEST PUSH1 0x6 DUP6 ADD SLOAD PUSH1 0x7 DUP7 ADD SLOAD PUSH2 0x423 PUSH1 0x8 DUP9 ADD PUSH2 0x11E8 JUMP JUMPDEST SWAP3 PUSH2 0x430 PUSH1 0x9 DUP10 ADD PUSH2 0x11E8 JUMP JUMPDEST SWAP5 PUSH2 0x43D PUSH1 0xA DUP11 ADD PUSH2 0x11E8 JUMP JUMPDEST SWAP7 PUSH1 0xB DUP11 ADD SLOAD SWAP10 PUSH1 0xC ADD SLOAD SWAP9 PUSH1 0x40 MLOAD SWAP13 DUP14 SWAP13 DUP14 PUSH2 0x1C0 DUP2 MSTORE PUSH2 0x1C0 ADD PUSH2 0x462 SWAP2 PUSH2 0x12AF JUMP JUMPDEST DUP14 DUP2 SUB PUSH1 0x20 DUP16 ADD MSTORE PUSH2 0x473 SWAP2 PUSH2 0x12AF JUMP JUMPDEST DUP13 DUP2 SUB PUSH1 0x40 DUP15 ADD MSTORE PUSH2 0x484 SWAP2 PUSH2 0x12AF JUMP JUMPDEST DUP12 DUP2 SUB PUSH1 0x60 DUP14 ADD MSTORE PUSH2 0x495 SWAP2 PUSH2 0x12AF JUMP JUMPDEST SWAP1 PUSH1 0x80 DUP12 ADD MSTORE DUP10 DUP2 SUB PUSH1 0xA0 DUP12 ADD MSTORE PUSH2 0x4AC SWAP2 PUSH2 0x12AF JUMP JUMPDEST SWAP2 PUSH1 0xC0 DUP10 ADD MSTORE PUSH1 0xE0 DUP9 ADD MSTORE DUP7 DUP2 SUB PUSH2 0x100 DUP9 ADD MSTORE PUSH2 0x4C9 SWAP2 PUSH2 0x12AF JUMP JUMPDEST DUP6 DUP2 SUB PUSH2 0x120 DUP8 ADD MSTORE PUSH2 0x4DB SWAP2 PUSH2 0x12AF JUMP JUMPDEST DUP5 DUP2 SUB PUSH2 0x140 DUP7 ADD MSTORE PUSH2 0x4ED SWAP2 PUSH2 0x12AF JUMP JUMPDEST SWAP2 PUSH2 0x160 DUP5 ADD MSTORE PUSH1 0x1 PUSH1 0xA0 SHL PUSH1 0x1 SWAP1 SUB DUP2 AND PUSH2 0x180 DUP5 ADD MSTORE PUSH1 0xA0 SHR PUSH1 0xFF AND ISZERO ISZERO PUSH2 0x1A0 DUP4 ADD MSTORE SUB SWAP1 RETURN JUMPDEST CALLVALUE PUSH2 0x168 JUMPI PUSH2 0x160 CALLDATASIZE PUSH1 0x3 NOT ADD SLT PUSH2 0x168 JUMPI PUSH1 0x4 CALLDATALOAD PUSH1 0x1 PUSH1 0x1 PUSH1 0x40 SHL SUB DUP2 GT PUSH2 0x168 JUMPI PUSH2 0x548 SWAP1 CALLDATASIZE SWAP1 PUSH1 0x4 ADD PUSH2 0x1108 JUMP JUMPDEST PUSH1 0x24 CALLDATALOAD PUSH1 0x1 PUSH1 0x1 PUSH1 0x40 SHL SUB DUP2 GT PUSH2 0x168 JUMPI PUSH2 0x567 SWAP1 CALLDATASIZE SWAP1 PUSH1 0x4 ADD PUSH2 0x1108 JUMP JUMPDEST PUSH1 0x44 CALLDATALOAD PUSH1 0x1 PUSH1 0x1 PUSH1 0x40 SHL SUB DUP2 GT PUSH2 0x168 JUMPI PUSH2 0x586 SWAP1 CALLDATASIZE SWAP1 PUSH1 0x4 ADD PUSH2 0x1108 JUMP JUMPDEST PUSH1 0x64 CALLDATALOAD PUSH1 0x1 PUSH1 0x1 PUSH1 0x40 SHL SUB DUP2 GT PUSH2 0x168 JUMPI PUSH2 0x5A5 SWAP1 CALLDATASIZE SWAP1 PUSH1 0x4 ADD PUSH2 0x1108 JUMP JUMPDEST SWAP2 PUSH1 0xA4 CALLDATALOAD PUSH1 0x1 PUSH1 0x1 PUSH1 0x40 SHL SUB DUP2 GT PUSH2 0x168 JUMPI PUSH2 0x5C5 SWAP1 CALLDATASIZE SWAP1 PUSH1 0x4 ADD PUSH2 0x1108 JUMP JUMPDEST SWAP4 PUSH2 0x104 CALLDATALOAD PUSH1 0x1 PUSH1 0x1 PUSH1 0x40 SHL SUB DUP2 GT PUSH2 0x168 JUMPI PUSH2 0x5E6 SWAP1 CALLDATASIZE SWAP1 PUSH1 0x4 ADD PUSH2 0x1108 JUMP JUMPDEST SWAP4 PUSH2 0x124 CALLDATALOAD PUSH1 0x1 PUSH1 0x1 PUSH1 0x40 SHL SUB DUP2 GT PUSH2 0x168 JUMPI PUSH2 0x607 SWAP1 CALLDATASIZE SWAP1 PUSH1 0x4 ADD PUSH2 0x1108 JUMP JUMPDEST PUSH2 0x144 CALLDATALOAD PUSH1 0x1 PUSH1 0x1 PUSH1 0x40 SHL SUB DUP2 GT PUSH2 0x168 JUMPI PUSH2 0x627 SWAP1 CALLDATASIZE SWAP1 PUSH1 0x4 ADD PUSH2 0x1108 JUMP JUMPDEST SWAP6 DUP7 MLOAD ISZERO PUSH2 0x108F JUMPI PUSH1 0x40 MLOAD SWAP4 PUSH2 0x63C DUP6 PUSH2 0x10CB JUMP JUMPDEST DUP5 MSTORE PUSH1 0x20 DUP5 ADD SWAP5 DUP6 MSTORE PUSH1 0x40 DUP5 ADD SWAP6 DUP7 MSTORE PUSH1 0x60 DUP5 ADD SWAP3 DUP4 MSTORE PUSH1 0x80 DUP5 ADD SWAP8 PUSH1 0x84 CALLDATALOAD DUP10 MSTORE PUSH1 0xA0 DUP6 ADD SWAP1 DUP2 MSTORE PUSH1 0xC0 DUP6 ADD PUSH1 0xC4 CALLDATALOAD DUP2 MSTORE PUSH1 0xE0 DUP7 ADD SWAP2 PUSH1 0xE4 CALLDATALOAD DUP4 MSTORE PUSH2 0x100 DUP8 ADD SWAP4 DUP5 MSTORE PUSH2 0x120 DUP8 ADD SWAP5 DUP6 MSTORE PUSH2 0x140 DUP8 ADD SWAP11 DUP11 DUP13 MSTORE PUSH2 0x160 DUP9 ADD SWAP7 TIMESTAMP DUP9 MSTORE PUSH2 0x180 DUP10 ADD SWAP11 CALLER DUP13 MSTORE PUSH2 0x1A0 DUP11 ADD SWAP11 PUSH1 0x0 DUP13 MSTORE PUSH1 0x0 SLOAD PUSH9 0x10000000000000000 DUP2 LT ISZERO PUSH2 0x152 JUMPI DUP1 PUSH1 0x1 PUSH2 0x6D0 SWAP3 ADD PUSH1 0x0 SSTORE PUSH2 0x115E JUMP JUMPDEST SWAP12 SWAP1 SWAP12 PUSH2 0x1079 JUMPI MLOAD DUP1 MLOAD SWAP1 PUSH1 0x1 PUSH1 0x1 PUSH1 0x40 SHL SUB DUP3 GT PUSH2 0x152 JUMPI DUP13 DUP3 SWAP2 PUSH2 0x6F6 DUP3 SLOAD PUSH2 0x11AE JUMP JUMPDEST PUSH1 0x1F DUP2 GT PUSH2 0x101C JUMPI JUMPDEST POP PUSH1 0x20 SWAP2 PUSH1 0x1F DUP5 GT PUSH1 0x1 EQ PUSH2 0xFB7 JUMPI POP PUSH1 0x0 SWAP3 PUSH2 0xFAC JUMPI JUMPDEST POP POP DUP2 PUSH1 0x1 SHL SWAP2 PUSH1 0x0 NOT SWAP1 PUSH1 0x3 SHL SHR NOT AND OR DUP12 SSTORE JUMPDEST MLOAD DUP1 MLOAD PUSH1 0x1 DUP13 ADD SWAP2 PUSH1 0x1 PUSH1 0x1 PUSH1 0x40 SHL SUB DUP3 GT PUSH2 0x152 JUMPI DUP2 SWAP1 PUSH2 0x74E DUP5 SLOAD PUSH2 0x11AE JUMP JUMPDEST PUSH1 0x1F DUP2 GT PUSH2 0xF59 JUMPI JUMPDEST POP PUSH1 0x20 SWAP1 PUSH1 0x1F DUP4 GT PUSH1 0x1 EQ PUSH2 0xEF4 JUMPI PUSH1 0x0 SWAP3 PUSH2 0xEE9 JUMPI JUMPDEST POP POP DUP2 PUSH1 0x1 SHL SWAP2 PUSH1 0x0 NOT SWAP1 PUSH1 0x3 SHL SHR NOT AND OR SWAP1 SSTORE JUMPDEST MLOAD DUP1 MLOAD PUSH1 0x2 DUP12 ADD SWAP2 PUSH1 0x1 PUSH1 0x1 PUSH1 0x40 SHL SUB DUP3 GT PUSH2 0x152 JUMPI DUP2 SWAP1 PUSH2 0x7A5 DUP5 SLOAD PUSH2 0x11AE JUMP JUMPDEST PUSH1 0x1F DUP2 GT PUSH2 0xE96 JUMPI JUMPDEST POP PUSH1 0x20 SWAP1 PUSH1 0x1F DUP4 GT PUSH1 0x1 EQ PUSH2 0xE31 JUMPI PUSH1 0x0 SWAP3 PUSH2 0xE26 JUMPI JUMPDEST POP POP DUP2 PUSH1 0x1 SHL SWAP2 PUSH1 0x0 NOT SWAP1 PUSH1 0x3 SHL SHR NOT AND OR SWAP1 SSTORE JUMPDEST MLOAD DUP1 MLOAD PUSH1 0x3 DUP11 ADD SWAP2 PUSH1 0x1 PUSH1 0x1 PUSH1 0x40 SHL SUB DUP3 GT PUSH2 0x152 JUMPI DUP2 SWAP1 PUSH2 0x7FC DUP5 SLOAD PUSH2 0x11AE JUMP JUMPDEST PUSH1 0x1F DUP2 GT PUSH2 0xDD3 JUMPI JUMPDEST POP PUSH1 0x20 SWAP1 PUSH1 0x1F DUP4 GT PUSH1 0x1 EQ PUSH2 0xD6E JUMPI PUSH1 0x0 SWAP3 PUSH2 0xD63 JUMPI JUMPDEST POP POP DUP2 PUSH1 0x1 SHL SWAP2 PUSH1 0x0 NOT SWAP1 PUSH1 0x3 SHL SHR NOT AND OR SWAP1 SSTORE JUMPDEST MLOAD PUSH1 0x4 DUP9 ADD SSTORE MLOAD DUP1 MLOAD PUSH1 0x5 DUP9 ADD SWAP2 PUSH1 0x1 PUSH1 0x1 PUSH1 0x40 SHL SUB DUP3 GT PUSH2 0x152 JUMPI DUP2 SWAP1 PUSH2 0x859 DUP5 SLOAD PUSH2 0x11AE JUMP JUMPDEST PUSH1 0x1F DUP2 GT PUSH2 0xD10 JUMPI JUMPDEST POP PUSH1 0x20 SWAP1 PUSH1 0x1F DUP4 GT PUSH1 0x1 EQ PUSH2 0xCAB JUMPI PUSH1 0x0 SWAP3 PUSH2 0xCA0 JUMPI JUMPDEST POP POP DUP2 PUSH1 0x1 SHL SWAP2 PUSH1 0x0 NOT SWAP1 PUSH1 0x3 SHL SHR NOT AND OR SWAP1 SSTORE JUMPDEST MLOAD PUSH1 0x6 DUP7 ADD SSTORE MLOAD PUSH1 0x7 DUP6 ADD SSTORE MLOAD DUP1 MLOAD PUSH1 0x8 DUP6 ADD SWAP2 PUSH1 0x1 PUSH1 0x1 PUSH1 0x40 SHL SUB DUP3 GT PUSH2 0x152 JUMPI DUP2 SWAP1 PUSH2 0x8BC DUP5 SLOAD PUSH2 0x11AE JUMP JUMPDEST PUSH1 0x1F DUP2 GT PUSH2 0xC4D JUMPI JUMPDEST POP PUSH1 0x20 SWAP1 PUSH1 0x1F DUP4 GT PUSH1 0x1 EQ PUSH2 0xBE8 JUMPI PUSH1 0x0 SWAP3 PUSH2 0xBDD JUMPI JUMPDEST POP POP DUP2 PUSH1 0x1 SHL SWAP2 PUSH1 0x0 NOT SWAP1 PUSH1 0x3 SHL SHR NOT AND OR SWAP1 SSTORE JUMPDEST MLOAD DUP1 MLOAD PUSH1 0x9 DUP5 ADD SWAP2 PUSH1 0x1 PUSH1 0x1 PUSH1 0x40 SHL SUB DUP3 GT PUSH2 0x152 JUMPI DUP2 SWAP1 PUSH2 0x913 DUP5 SLOAD PUSH2 0x11AE JUMP JUMPDEST PUSH1 0x1F DUP2 GT PUSH2 0xB8A JUMPI JUMPDEST POP PUSH1 0x20 SWAP1 PUSH1 0x1F DUP4 GT PUSH1 0x1 EQ PUSH2 0xB25 JUMPI PUSH1 0x0 SWAP3 PUSH2 0xB1A JUMPI JUMPDEST POP POP DUP2 PUSH1 0x1 SHL SWAP2 PUSH1 0x0 NOT SWAP1 PUSH1 0x3 SHL SHR NOT AND OR SWAP1 SSTORE JUMPDEST PUSH1 0xA DUP3 ADD SWAP6 MLOAD SWAP6 DUP7 MLOAD PUSH1 0x1 PUSH1 0x1 PUSH1 0x40 SHL SUB DUP2 GT PUSH2 0x152 JUMPI PUSH2 0x969 DUP3 SLOAD PUSH2 0x11AE JUMP JUMPDEST PUSH1 0x1F DUP2 GT PUSH2 0xAD2 JUMPI JUMPDEST POP PUSH1 0x20 PUSH1 0x1F DUP3 GT PUSH1 0x1 EQ PUSH2 0xA67 JUMPI DUP2 SWAP1 PUSH1 0xC SWAP7 SWAP8 SWAP9 SWAP10 PUSH1 0x0 SWAP3 PUSH2 0xA5C JUMPI JUMPDEST POP POP DUP2 PUSH1 0x1 SHL SWAP2 PUSH1 0x0 NOT SWAP1 PUSH1 0x3 SHL SHR NOT AND OR SWAP1 SSTORE JUMPDEST MLOAD PUSH1 0xB DUP3 ADD SSTORE SWAP3 MLOAD SWAP3 ADD DUP1 SLOAD SWAP2 MLOAD PUSH1 0x1 PUSH1 0x1 PUSH1 0xA8 SHL SUB NOT SWAP1 SWAP3 AND PUSH1 0x1 PUSH1 0x1 PUSH1 0xA0 SHL SUB SWAP4 SWAP1 SWAP4 AND SWAP3 SWAP1 SWAP3 OR SWAP1 ISZERO ISZERO PUSH1 0xA0 SHL PUSH1 0xFF PUSH1 0xA0 SHL AND OR SWAP1 SSTORE PUSH1 0x0 SLOAD PUSH1 0x0 NOT DUP2 ADD SWAP2 SWAP1 DUP3 GT PUSH2 0xA46 JUMPI PUSH2 0xA17 SWAP2 PUSH1 0x40 MLOAD PUSH1 0x20 DUP2 DUP5 MLOAD PUSH2 0xA07 DUP2 DUP4 DUP6 DUP10 ADD PUSH2 0x128C JUMP JUMPDEST DUP2 ADD PUSH1 0x1 DUP2 MSTORE SUB ADD SWAP1 KECCAK256 SSTORE PUSH2 0x13CF JUMP JUMPDEST PUSH1 0x40 MLOAD SWAP1 TIMESTAMP DUP3 MSTORE PUSH32 0x42066E02E05D70F0DCB2A02749EEFF4BBEA4D4D71599816318BDE61F349AF31F PUSH1 0x20 CALLER SWAP4 LOG3 STOP JUMPDEST PUSH4 0x4E487B71 PUSH1 0xE0 SHL PUSH1 0x0 MSTORE PUSH1 0x11 PUSH1 0x4 MSTORE PUSH1 0x24 PUSH1 0x0 REVERT JUMPDEST ADD MLOAD SWAP1 POP DUP10 DUP1 PUSH2 0x990 JUMP JUMPDEST PUSH1 0x1F NOT DUP3 AND SWAP9 DUP4 PUSH1 0x0 MSTORE DUP2 PUSH1 0x0 KECCAK256 SWAP10 PUSH1 0x0 JUMPDEST DUP2 DUP2 LT PUSH2 0xABA JUMPI POP SWAP2 PUSH1 0xC SWAP8 SWAP9 SWAP10 SWAP11 SWAP2 DUP5 PUSH1 0x1 SWAP6 SWAP5 LT PUSH2 0xAA1 JUMPI JUMPDEST POP POP POP DUP2 SHL ADD SWAP1 SSTORE PUSH2 0x9A5 JUMP JUMPDEST ADD MLOAD PUSH1 0x0 NOT PUSH1 0xF8 DUP5 PUSH1 0x3 SHL AND SHR NOT AND SWAP1 SSTORE DUP10 DUP1 DUP1 PUSH2 0xA94 JUMP JUMPDEST DUP4 DUP4 ADD MLOAD DUP13 SSTORE PUSH1 0x1 SWAP1 SWAP12 ADD SWAP11 PUSH1 0x20 SWAP4 DUP5 ADD SWAP4 ADD PUSH2 0xA79 JUMP JUMPDEST DUP3 PUSH1 0x0 MSTORE PUSH1 0x20 PUSH1 0x0 KECCAK256 PUSH1 0x1F DUP4 ADD PUSH1 0x5 SHR DUP2 ADD SWAP2 PUSH1 0x20 DUP5 LT PUSH2 0xB10 JUMPI JUMPDEST PUSH1 0x1F ADD PUSH1 0x5 SHR ADD SWAP1 JUMPDEST DUP2 DUP2 LT PUSH2 0xB04 JUMPI POP PUSH2 0x972 JUMP JUMPDEST PUSH1 0x0 DUP2 SSTORE PUSH1 0x1 ADD PUSH2 0xAF7 JUMP JUMPDEST SWAP1 SWAP2 POP DUP2 SWAP1 PUSH2 0xAEE JUMP JUMPDEST ADD MLOAD SWAP1 POP DUP10 DUP1 PUSH2 0x933 JUMP JUMPDEST PUSH1 0x0 DUP6 DUP2 MSTORE DUP3 DUP2 KECCAK256 SWAP4 POP PUSH1 0x1F NOT DUP6 AND SWAP1 JUMPDEST DUP2 DUP2 LT PUSH2 0xB72 JUMPI POP SWAP1 DUP5 PUSH1 0x1 SWAP6 SWAP5 SWAP4 SWAP3 LT PUSH2 0xB59 JUMPI JUMPDEST POP POP POP DUP2 SHL ADD SWAP1 SSTORE PUSH2 0x948 JUMP JUMPDEST ADD MLOAD PUSH1 0x0 NOT PUSH1 0xF8 DUP5 PUSH1 0x3 SHL AND SHR NOT AND SWAP1 SSTORE DUP10 DUP1 DUP1 PUSH2 0xB4C JUMP JUMPDEST SWAP3 SWAP4 PUSH1 0x20 PUSH1 0x1 DUP2 SWAP3 DUP8 DUP7 ADD MLOAD DUP2 SSTORE ADD SWAP6 ADD SWAP4 ADD PUSH2 0xB36 JUMP JUMPDEST SWAP1 SWAP2 POP DUP4 PUSH1 0x0 MSTORE PUSH1 0x20 PUSH1 0x0 KECCAK256 PUSH1 0x1F DUP5 ADD PUSH1 0x5 SHR DUP2 ADD SWAP2 PUSH1 0x20 DUP6 LT PUSH2 0xBD3 JUMPI JUMPDEST SWAP1 PUSH1 0x1F DUP6 SWAP5 SWAP4 SWAP3 ADD PUSH1 0x5 SHR ADD SWAP1 JUMPDEST DUP2 DUP2 LT PUSH2 0xBC4 JUMPI POP PUSH2 0x91C JUMP JUMPDEST PUSH1 0x0 DUP2 SSTORE DUP5 SWAP4 POP PUSH1 0x1 ADD PUSH2 0xBB7 JUMP JUMPDEST SWAP1 SWAP2 POP DUP2 SWAP1 PUSH2 0xBA9 JUMP JUMPDEST ADD MLOAD SWAP1 POP DUP11 DUP1 PUSH2 0x8DC JUMP JUMPDEST PUSH1 0x0 DUP6 DUP2 MSTORE DUP3 DUP2 KECCAK256 SWAP4 POP PUSH1 0x1F NOT DUP6 AND SWAP1 JUMPDEST DUP2 DUP2 LT PUSH2 0xC35 JUMPI POP SWAP1 DUP5 PUSH1 0x1 SWAP6 SWAP5 SWAP4 SWAP3 LT PUSH2 0xC1C JUMPI JUMPDEST POP POP POP DUP2 SHL ADD SWAP1 SSTORE PUSH2 0x8F1 JUMP JUMPDEST ADD MLOAD PUSH1 0x0 NOT PUSH1 0xF8 DUP5 PUSH1 0x3 SHL AND SHR NOT AND SWAP1 SSTORE DUP11 DUP1 DUP1 PUSH2 0xC0F JUMP JUMPDEST SWAP3 SWAP4 PUSH1 0x20 PUSH1 0x1 DUP2 SWAP3 DUP8 DUP7 ADD MLOAD DUP2 SSTORE ADD SWAP6 ADD SWAP4 ADD PUSH2 0xBF9 JUMP JUMPDEST SWAP1 SWAP2 POP DUP4 PUSH1 0x0 MSTORE PUSH1 0x20 PUSH1 0x0 KECCAK256 PUSH1 0x1F DUP5 ADD PUSH1 0x5 SHR DUP2 ADD SWAP2 PUSH1 0x20 DUP6 LT PUSH2 0xC96 JUMPI JUMPDEST SWAP1 PUSH1 0x1F DUP6 SWAP5 SWAP4 SWAP3 ADD PUSH1 0x5 SHR ADD SWAP1 JUMPDEST DUP2 DUP2 LT PUSH2 0xC87 JUMPI POP PUSH2 0x8C5 JUMP JUMPDEST PUSH1 0x0 DUP2 SSTORE DUP5 SWAP4 POP PUSH1 0x1 ADD PUSH2 0xC7A JUMP JUMPDEST SWAP1 SWAP2 POP DUP2 SWAP1 PUSH2 0xC6C JUMP JUMPDEST ADD MLOAD SWAP1 POP DUP14 DUP1 PUSH2 0x879 JUMP JUMPDEST PUSH1 0x0 DUP6 DUP2 MSTORE DUP3 DUP2 KECCAK256 SWAP4 POP PUSH1 0x1F NOT DUP6 AND SWAP1 JUMPDEST DUP2 DUP2 LT PUSH2 0xCF8 JUMPI POP SWAP1 DUP5 PUSH1 0x1 SWAP6 SWAP5 SWAP4 SWAP3 LT PUSH2 0xCDF JUMPI JUMPDEST POP POP POP DUP2 SHL ADD SWAP1 SSTORE PUSH2 0x88E JUMP JUMPDEST ADD MLOAD PUSH1 0x0 NOT PUSH1 0xF8 DUP5 PUSH1 0x3 SHL AND SHR NOT AND SWAP1 SSTORE DUP14 DUP1 DUP1 PUSH2 0xCD2 JUMP JUMPDEST SWAP3 SWAP4 PUSH1 0x20 PUSH1 0x1 DUP2 SWAP3 DUP8 DUP7 ADD MLOAD DUP2 SSTORE ADD SWAP6 ADD SWAP4 ADD PUSH2 0xCBC JUMP JUMPDEST SWAP1 SWAP2 POP DUP4 PUSH1 0x0 MSTORE PUSH1 0x20 PUSH1 0x0 KECCAK256 PUSH1 0x1F DUP5 ADD PUSH1 0x5 SHR DUP2 ADD SWAP2 PUSH1 0x20 DUP6 LT PUSH2 0xD59 JUMPI JUMPDEST SWAP1 PUSH1 0x1F DUP6 SWAP5 SWAP4 SWAP3 ADD PUSH1 0x5 SHR ADD SWAP1 JUMPDEST DUP2 DUP2 LT PUSH2 0xD4A JUMPI POP PUSH2 0x862 JUMP JUMPDEST PUSH1 0x0 DUP2 SSTORE DUP5 SWAP4 POP PUSH1 0x1 ADD PUSH2 0xD3D JUMP JUMPDEST SWAP1 SWAP2 POP DUP2 SWAP1 PUSH2 0xD2F JUMP JUMPDEST ADD MLOAD SWAP1 POP DUP16 DUP1 PUSH2 0x81C JUMP JUMPDEST PUSH1 0x0 DUP6 DUP2 MSTORE DUP3 DUP2 KECCAK256 SWAP4 POP PUSH1 0x1F NOT DUP6 AND SWAP1 JUMPDEST DUP2 DUP2 LT PUSH2 0xDBB JUMPI POP SWAP1 DUP5 PUSH1 0x1 SWAP6 SWAP5 SWAP4 SWAP3 LT PUSH2 0xDA2 JUMPI JUMPDEST POP POP POP DUP2 SHL ADD SWAP1 SSTORE PUSH2 0x831 JUMP JUMPDEST ADD MLOAD PUSH1 0x0 NOT PUSH1 0xF8 DUP5 PUSH1 0x3 SHL AND SHR NOT AND SWAP1 SSTORE DUP16 DUP1 DUP1 PUSH2 0xD95 JUMP JUMPDEST SWAP3 SWAP4 PUSH1 0x20 PUSH1 0x1 DUP2 SWAP3 DUP8 DUP7 ADD MLOAD DUP2 SSTORE ADD SWAP6 ADD SWAP4 ADD PUSH2 0xD7F JUMP JUMPDEST SWAP1 SWAP2 POP DUP4 PUSH1 0x0 MSTORE PUSH1 0x20 PUSH1 0x0 KECCAK256 PUSH1 0x1F DUP5 ADD PUSH1 0x5 SHR DUP2 ADD SWAP2 PUSH1 0x20 DUP6 LT PUSH2 0xE1C JUMPI JUMPDEST SWAP1 PUSH1 0x1F DUP6 SWAP5 SWAP4 SWAP3 ADD PUSH1 0x5 SHR ADD SWAP1 JUMPDEST DUP2 DUP2 LT PUSH2 0xE0D JUMPI POP PUSH2 0x805 JUMP JUMPDEST PUSH1 0x0 DUP2 SSTORE DUP5 SWAP4 POP PUSH1 0x1 ADD PUSH2 0xE00 JUMP JUMPDEST SWAP1 SWAP2 POP DUP2 SWAP1 PUSH2 0xDF2 JUMP JUMPDEST ADD MLOAD SWAP1 POP CODESIZE DUP1 PUSH2 0x7C5 JUMP JUMPDEST PUSH1 0x0 DUP6 DUP2 MSTORE DUP3 DUP2 KECCAK256 SWAP4 POP PUSH1 0x1F NOT DUP6 AND SWAP1 JUMPDEST DUP2 DUP2 LT PUSH2 0xE7E JUMPI POP SWAP1 DUP5 PUSH1 0x1 SWAP6 SWAP5 SWAP4 SWAP3 LT PUSH2 0xE65 JUMPI JUMPDEST POP POP POP DUP2 SHL ADD SWAP1 SSTORE PUSH2 0x7DA JUMP JUMPDEST ADD MLOAD PUSH1 0x0 NOT PUSH1 0xF8 DUP5 PUSH1 0x3 SHL AND SHR NOT AND SWAP1 SSTORE CODESIZE DUP1 DUP1 PUSH2 0xE58 JUMP JUMPDEST SWAP3 SWAP4 PUSH1 0x20 PUSH1 0x1 DUP2 SWAP3 DUP8 DUP7 ADD MLOAD DUP2 SSTORE ADD SWAP6 ADD SWAP4 ADD PUSH2 0xE42 JUMP JUMPDEST SWAP1 SWAP2 POP DUP4 PUSH1 0x0 MSTORE PUSH1 0x20 PUSH1 0x0 KECCAK256 PUSH1 0x1F DUP5 ADD PUSH1 0x5 SHR DUP2 ADD SWAP2 PUSH1 0x20 DUP6 LT PUSH2 0xEDF JUMPI JUMPDEST SWAP1 PUSH1 0x1F DUP6 SWAP5 SWAP4 SWAP3 ADD PUSH1 0x5 SHR ADD SWAP1 JUMPDEST DUP2 DUP2 LT PUSH2 0xED0 JUMPI POP PUSH2 0x7AE JUMP JUMPDEST PUSH1 0x0 DUP2 SSTORE DUP5 SWAP4 POP PUSH1 0x1 ADD PUSH2 0xEC3 JUMP JUMPDEST SWAP1 SWAP2 POP DUP2 SWAP1 PUSH2 0xEB5 JUMP JUMPDEST ADD MLOAD SWAP1 POP CODESIZE DUP1 PUSH2 0x76E JUMP JUMPDEST PUSH1 0x0 DUP6 DUP2 MSTORE DUP3 DUP2 KECCAK256 SWAP4 POP PUSH1 0x1F NOT DUP6 AND SWAP1 JUMPDEST DUP2 DUP2 LT PUSH2 0xF41 JUMPI POP SWAP1 DUP5 PUSH1 0x1 SWAP6 SWAP5 SWAP4 SWAP3 LT PUSH2 0xF28 JUMPI JUMPDEST POP POP POP DUP2 SHL ADD SWAP1 SSTORE PUSH2 0x783 JUMP JUMPDEST ADD MLOAD PUSH1 0x0 NOT PUSH1 0xF8 DUP5 PUSH1 0x3 SHL AND SHR NOT AND SWAP1 SSTORE CODESIZE DUP1 DUP1 PUSH2 0xF1B JUMP JUMPDEST SWAP3 SWAP4 PUSH1 0x20 PUSH1 0x1 DUP2 SWAP3 DUP8 DUP7 ADD MLOAD DUP2 SSTORE ADD SWAP6 ADD SWAP4 ADD PUSH2 0xF05 JUMP JUMPDEST SWAP1 SWAP2 POP DUP4 PUSH1 0x0 MSTORE PUSH1 0x20 PUSH1 0x0 KECCAK256 PUSH1 0x1F DUP5 ADD PUSH1 0x5 SHR DUP2 ADD SWAP2 PUSH1 0x20 DUP6 LT PUSH2 0xFA2 JUMPI JUMPDEST SWAP1 PUSH1 0x1F DUP6 SWAP5 SWAP4 SWAP3 ADD PUSH1 0x5 SHR ADD SWAP1 JUMPDEST DUP2 DUP2 LT PUSH2 0xF93 JUMPI POP PUSH2 0x757 JUMP JUMPDEST PUSH1 0x0 DUP2 SSTORE DUP5 SWAP4 POP PUSH1 0x1 ADD PUSH2 0xF86 JUMP JUMPDEST SWAP1 SWAP2 POP DUP2 SWAP1 PUSH2 0xF78 JUMP JUMPDEST ADD MLOAD SWAP1 POP CODESIZE DUP1 PUSH2 0x717 JUMP JUMPDEST PUSH1 0x0 SWAP1 DUP2 MSTORE DUP3 DUP2 KECCAK256 SWAP4 POP PUSH1 0x1F NOT DUP6 AND SWAP1 JUMPDEST DUP2 DUP2 LT PUSH2 0x1004 JUMPI POP SWAP1 DUP5 PUSH1 0x1 SWAP6 SWAP5 SWAP4 SWAP3 LT PUSH2 0xFEB JUMPI JUMPDEST POP POP POP DUP2 SHL ADD DUP12 SSTORE PUSH2 0x72C JUMP JUMPDEST ADD MLOAD PUSH1 0x0 NOT PUSH1 0xF8 DUP5 PUSH1 0x3 SHL AND SHR NOT AND SWAP1 SSTORE CODESIZE DUP1 DUP1 PUSH2 0xFDE JUMP JUMPDEST SWAP3 SWAP4 PUSH1 0x20 PUSH1 0x1 DUP2 SWAP3 DUP8 DUP7 ADD MLOAD DUP2 SSTORE ADD SWAP6 ADD SWAP4 ADD PUSH2 0xFC8 JUMP JUMPDEST SWAP2 SWAP1 SWAP3 POP PUSH1 0x0 MSTORE PUSH1 0x20 PUSH1 0x0 KECCAK256 PUSH1 0x1F DUP5 ADD PUSH1 0x5 SHR DUP2 ADD SWAP2 PUSH1 0x20 DUP6 LT PUSH2 0x106F JUMPI JUMPDEST SWAP2 DUP16 SWAP3 SWAP2 PUSH1 0x1F DUP7 SWAP6 SWAP4 ADD PUSH1 0x5 SHR ADD SWAP1 JUMPDEST DUP2 DUP2 LT PUSH2 0x1058 JUMPI POP PUSH2 0x6FF JUMP JUMPDEST SWAP1 SWAP3 POP PUSH1 0x1 SWAP2 SWAP4 POP PUSH1 0x0 DUP2 SSTORE ADD SWAP2 DUP15 SWAP2 DUP5 SWAP4 PUSH2 0x104B JUMP JUMPDEST SWAP1 SWAP2 POP DUP2 SWAP1 PUSH2 0x103B JUMP JUMPDEST PUSH4 0x4E487B71 PUSH1 0xE0 SHL PUSH1 0x0 MSTORE PUSH1 0x0 PUSH1 0x4 MSTORE PUSH1 0x24 PUSH1 0x0 REVERT JUMPDEST PUSH1 0x40 MLOAD PUSH3 0x461BCD PUSH1 0xE5 SHL DUP2 MSTORE PUSH1 0x20 PUSH1 0x4 DUP3 ADD MSTORE PUSH1 0x14 PUSH1 0x24 DUP3 ADD MSTORE PUSH20 0x151C9858DADA5B99C81251081C995C5D5A5C9959 PUSH1 0x62 SHL PUSH1 0x44 DUP3 ADD MSTORE PUSH1 0x64 SWAP1 REVERT JUMPDEST PUSH2 0x1C0 DUP2 ADD SWAP1 DUP2 LT PUSH1 0x1 PUSH1 0x1 PUSH1 0x40 SHL SUB DUP3 GT OR PUSH2 0x152 JUMPI PUSH1 0x40 MSTORE JUMP JUMPDEST SWAP1 PUSH1 0x1F DUP1 NOT SWAP2 ADD AND DUP2 ADD SWAP1 DUP2 LT PUSH1 0x1 PUSH1 0x1 PUSH1 0x40 SHL SUB DUP3 GT OR PUSH2 0x152 JUMPI PUSH1 0x40 MSTORE JUMP JUMPDEST DUP2 PUSH1 0x1F DUP3 ADD SLT ISZERO PUSH2 0x168 JUMPI DUP1 CALLDATALOAD SWAP1 PUSH1 0x1 PUSH1 0x1 PUSH1 0x40 SHL SUB DUP3 GT PUSH2 0x152 JUMPI PUSH1 0x40 MLOAD SWAP3 PUSH2 0x113C PUSH1 0x1F DUP5 ADD PUSH1 0x1F NOT AND PUSH1 0x20 ADD DUP6 PUSH2 0x10E7 JUMP JUMPDEST DUP3 DUP5 MSTORE PUSH1 0x20 DUP4 DUP4 ADD ADD GT PUSH2 0x168 JUMPI DUP2 PUSH1 0x0 SWAP3 PUSH1 0x20 DUP1 SWAP4 ADD DUP4 DUP7 ADD CALLDATACOPY DUP4 ADD ADD MSTORE SWAP1 JUMP JUMPDEST PUSH1 0x0 SLOAD DUP2 LT ISZERO PUSH2 0x1198 JUMPI PUSH1 0x0 DUP1 DUP1 MSTORE PUSH1 0xD SWAP2 SWAP1 SWAP2 MUL PUSH32 0x290DECD9548B62A8D60345A988386FC84BA6BC95484008F6362F93160EF3E563 ADD SWAP2 JUMP JUMPDEST PUSH4 0x4E487B71 PUSH1 0xE0 SHL PUSH1 0x0 MSTORE PUSH1 0x32 PUSH1 0x4 MSTORE PUSH1 0x24 PUSH1 0x0 REVERT JUMPDEST SWAP1 PUSH1 0x1 DUP3 DUP2 SHR SWAP3 AND DUP1 ISZERO PUSH2 0x11DE JUMPI JUMPDEST PUSH1 0x20 DUP4 LT EQ PUSH2 0x11C8 JUMPI JUMP JUMPDEST PUSH4 0x4E487B71 PUSH1 0xE0 SHL PUSH1 0x0 MSTORE PUSH1 0x22 PUSH1 0x4 MSTORE PUSH1 0x24 PUSH1 0x0 REVERT JUMPDEST SWAP2 PUSH1 0x7F AND SWAP2 PUSH2 0x11BD JUMP JUMPDEST SWAP1 PUSH1 0x40 MLOAD SWAP2 DUP3 PUSH1 0x0 DUP3 SLOAD SWAP3 PUSH2 0x11FC DUP5 PUSH2 0x11AE JUMP JUMPDEST DUP1 DUP5 MSTORE SWAP4 PUSH1 0x1 DUP2 AND SWAP1 DUP2 ISZERO PUSH2 0x126A JUMPI POP PUSH1 0x1 EQ PUSH2 0x1223 JUMPI JUMPDEST POP PUSH2 0x1221 SWAP3 POP SUB DUP4 PUSH2 0x10E7 JUMP JUMPDEST JUMP JUMPDEST SWAP1 POP PUSH1 0x0 SWAP3 SWAP2 SWAP3 MSTORE PUSH1 0x20 PUSH1 0x0 KECCAK256 SWAP1 PUSH1 0x0 SWAP2 JUMPDEST DUP2 DUP4 LT PUSH2 0x124E JUMPI POP POP SWAP1 PUSH1 0x20 PUSH2 0x1221 SWAP3 DUP3 ADD ADD CODESIZE PUSH2 0x1214 JUMP JUMPDEST PUSH1 0x20 SWAP2 SWAP4 POP DUP1 PUSH1 0x1 SWAP2 SLOAD DUP4 DUP6 DUP10 ADD ADD MSTORE ADD SWAP2 ADD SWAP1 SWAP2 DUP5 SWAP3 PUSH2 0x1235 JUMP JUMPDEST SWAP1 POP PUSH1 0x20 SWAP3 POP PUSH2 0x1221 SWAP5 SWAP2 POP PUSH1 0xFF NOT AND DUP3 DUP5 ADD MSTORE ISZERO ISZERO PUSH1 0x5 SHL DUP3 ADD ADD CODESIZE PUSH2 0x1214 JUMP JUMPDEST PUSH1 0x0 JUMPDEST DUP4 DUP2 LT PUSH2 0x129F JUMPI POP POP PUSH1 0x0 SWAP2 ADD MSTORE JUMP JUMPDEST DUP2 DUP2 ADD MLOAD DUP4 DUP3 ADD MSTORE PUSH1 0x20 ADD PUSH2 0x128F JUMP JUMPDEST SWAP1 PUSH1 0x20 SWAP2 PUSH2 0x12C8 DUP2 MLOAD DUP1 SWAP3 DUP2 DUP6 MSTORE DUP6 DUP1 DUP7 ADD SWAP2 ADD PUSH2 0x128C JUMP JUMPDEST PUSH1 0x1F ADD PUSH1 0x1F NOT AND ADD ADD SWAP1 JUMP JUMPDEST SWAP1 PUSH2 0x1A0 DUP1 PUSH2 0x13A5 PUSH2 0x1391 PUSH2 0x137D PUSH2 0x1355 PUSH2 0x1339 PUSH2 0x1327 PUSH2 0x1315 PUSH2 0x1303 DUP12 MLOAD PUSH2 0x1C0 DUP13 MSTORE PUSH2 0x1C0 DUP13 ADD SWAP1 PUSH2 0x12AF JUMP JUMPDEST PUSH1 0x20 DUP13 ADD MLOAD DUP12 DUP3 SUB PUSH1 0x20 DUP14 ADD MSTORE PUSH2 0x12AF JUMP JUMPDEST PUSH1 0x40 DUP12 ADD MLOAD DUP11 DUP3 SUB PUSH1 0x40 DUP13 ADD MSTORE PUSH2 0x12AF JUMP JUMPDEST PUSH1 0x60 DUP11 ADD MLOAD DUP10 DUP3 SUB PUSH1 0x60 DUP12 ADD MSTORE PUSH2 0x12AF JUMP JUMPDEST PUSH1 0x80 DUP10 ADD MLOAD PUSH1 0x80 DUP10 ADD MSTORE PUSH1 0xA0 DUP10 ADD MLOAD DUP9 DUP3 SUB PUSH1 0xA0 DUP11 ADD MSTORE PUSH2 0x12AF JUMP JUMPDEST PUSH1 0xC0 DUP9 ADD MLOAD PUSH1 0xC0 DUP9 ADD MSTORE PUSH1 0xE0 DUP9 ADD MLOAD PUSH1 0xE0 DUP9 ADD MSTORE PUSH2 0x100 DUP9 ADD MLOAD DUP8 DUP3 SUB PUSH2 0x100 DUP10 ADD MSTORE PUSH2 0x12AF JUMP JUMPDEST PUSH2 0x120 DUP8 ADD MLOAD DUP7 DUP3 SUB PUSH2 0x120 DUP9 ADD MSTORE PUSH2 0x12AF JUMP JUMPDEST PUSH2 0x140 DUP7 ADD MLOAD DUP6 DUP3 SUB PUSH2 0x140 DUP8 ADD MSTORE PUSH2 0x12AF JUMP JUMPDEST PUSH2 0x160 DUP1 DUP7 ADD MLOAD SWAP1 DUP6 ADD MSTORE PUSH2 0x180 DUP1 DUP7 ADD MLOAD PUSH1 0x1 PUSH1 0x1 PUSH1 0xA0 SHL SUB AND SWAP1 DUP6 ADD MSTORE SWAP4 ADD MLOAD ISZERO ISZERO SWAP2 ADD MSTORE SWAP1 JUMP JUMPDEST PUSH2 0x13E7 SWAP1 PUSH1 0x20 PUSH1 0x40 MLOAD SWAP3 DUP3 DUP5 DUP1 SWAP5 MLOAD SWAP4 DUP5 SWAP3 ADD PUSH2 0x128C JUMP JUMPDEST DUP2 ADD SUB SWAP1 KECCAK256 SWAP1 JUMP JUMPDEST SWAP1 PUSH1 0x40 MLOAD PUSH2 0x13FC DUP2 PUSH2 0x10CB JUMP JUMPDEST PUSH2 0x1A0 PUSH1 0xFF PUSH1 0xC DUP4 SWAP6 PUSH2 0x140E DUP2 PUSH2 0x11E8 JUMP JUMPDEST DUP6 MSTORE PUSH2 0x141C PUSH1 0x1 DUP3 ADD PUSH2 0x11E8 JUMP JUMPDEST PUSH1 0x20 DUP7 ADD MSTORE PUSH2 0x142D PUSH1 0x2 DUP3 ADD PUSH2 0x11E8 JUMP JUMPDEST PUSH1 0x40 DUP7 ADD MSTORE PUSH2 0x143E PUSH1 0x3 DUP3 ADD PUSH2 0x11E8 JUMP JUMPDEST PUSH1 0x60 DUP7 ADD MSTORE PUSH1 0x4 DUP2 ADD SLOAD PUSH1 0x80 DUP7 ADD MSTORE PUSH2 0x1459 PUSH1 0x5 DUP3 ADD PUSH2 0x11E8 JUMP JUMPDEST PUSH1 0xA0 DUP7 ADD MSTORE PUSH1 0x6 DUP2 ADD SLOAD PUSH1 0xC0 DUP7 ADD MSTORE PUSH1 0x7 DUP2 ADD SLOAD PUSH1 0xE0 DUP7 ADD MSTORE PUSH2 0x147E PUSH1 0x8 DUP3 ADD PUSH2 0x11E8 JUMP JUMPDEST PUSH2 0x100 DUP7 ADD MSTORE PUSH2 0x1490 PUSH1 0x9 DUP3 ADD PUSH2 0x11E8 JUMP JUMPDEST PUSH2 0x120 DUP7 ADD MSTORE PUSH2 0x14A2 PUSH1 0xA DUP3 ADD PUSH2 0x11E8 JUMP JUMPDEST PUSH2 0x140 DUP7 ADD MSTORE PUSH1 0xB DUP2 ADD SLOAD PUSH2 0x160 DUP7 ADD MSTORE ADD SLOAD PUSH1 0x1 PUSH1 0x1 PUSH1 0xA0 SHL SUB DUP2 AND PUSH2 0x180 DUP6 ADD MSTORE PUSH1 0xA0 SHR AND ISZERO ISZERO SWAP2 ADD MSTORE JUMP INVALID LOG2 PUSH5 0x6970667358 0x22 SLT KECCAK256 CALL 0xE4 DUP5 0xBF CREATE SELFBALANCE TIMESTAMP DUP1 0x22 0x4E 0xCA 0x2C DUP16 PUSH26 0x3FBCD906218C9A978173ACD0D6F81A5A83F664736F6C63430008 SHR STOP CALLER "},"methodIdentifiers":{"getAllGrievances()":"e3f2cbd8","getGrievance(string)":"b55d5a06","grievances(uint256)":"356f1d75","markResolved(string)":"ca3bd5d4","submitGrievance(string,string,string,string,uint256,string,uint256,uint256,string,string,string)":"1e671b62","trackingIdToIndex(string)":"9ecc78f7"}}}}}