{
  "_format": "hh-sol-artifact-1",
  "contractName": "GrievanceRegistry",
  "sourceName": "contracts/GrievanceRegistry{BASE}/src/Grievance.sol",
  "abi": [
    {
      "anonymous": false,
      "inputs": [
        {
          "indexed": true,
          "internalType": "string",
          "name": "trackingId",
          "type": "string"
        },
        {
          "indexed": true,
          "internalType": "address",
          "name": "submitter",
          "type": "address"
        },
        {
          "indexed": false,
          "internalType": "uint256",
          "name": "timestamp",
          "type": "uint256"
        }
      ],
      "name": "GrievanceLogged",
      "type": "event"
    },
    {
      "anonymous": false,
      "inputs": [
        {
          "indexed": true,
          "internalType": "string",
          "name": "trackingId",
          "type": "string"
        },
        {
          "indexed": false,
          "internalType": "uint256",
          "name": "timestamp",
          "type": "uint256"
        }
      ],
      "name": "GrievanceResolved",
      "type": "event"
    },
    {
      "inputs": [],
      "name": "getAllGrievances",
      "outputs": [
        {
          "components": [
            {
              "internalType": "string",
              "name": "title",
              "type": "string"
            },
            {
              "internalType": "string",
              "name": "description",
              "type": "string"
            },
            {
              "internalType": "string",
              "name": "category",
              "type": "string"
            },
            {
              "internalType": "string",
              "name": "location",
              "type": "string"
            },
            {
              "internalType": "uint256",
              "name": "mediaCount",
              "type": "uint256"
            },
            {
              "internalType": "string",
              "name": "priorityLevel",
              "type": "string"
            },
            {
              "internalType": "uint256",
              "name": "estimatedDays",
              "type": "uint256"
            },
            {
              "internalType": "uint256",
              "name": "fundAmount",
              "type": "uint256"
            },
            {
              "internalType": "string",
              "name": "currency",
              "type": "string"
            },
            {
              "internalType": "string",
              "name": "aiJustification",
              "type": "string"
            },
            {
              "internalType": "string",
              "name": "trackingId",
              "type": "string"
            },
            {
              "internalType": "uint256",
              "name": "timestamp",
              "type": "uint256"
            },
            {
              "internalType": "address",
              "name": "submitter",
              "type": "address"
            },
            {
              "internalType": "bool",
              "name": "resolved",
              "type": "bool"
            }
          ],
          "internalType": "struct GrievanceRegistry.Grievance[]",
          "name": "",
          "type": "tuple[]"
        }
      ],
      "stateMutability": "view",
      "type": "function"
    },
    {
      "inputs": [
        {
          "internalType": "string",
          "name": "_trackingId",
          "type": "string"
        }
      ],
      "name": "getGrievance",
      "outputs": [
        {
          "components": [
            {
              "internalType": "string",
              "name": "title",
              "type": "string"
            },
            {
              "internalType": "string",
              "name": "description",
              "type": "string"
            },
            {
              "internalType": "string",
              "name": "category",
              "type": "string"
            },
            {
              "internalType": "string",
              "name": "location",
              "type": "string"
            },
            {
              "internalType": "uint256",
              "name": "mediaCount",
              "type": "uint256"
            },
            {
              "internalType": "string",
              "name": "priorityLevel",
              "type": "string"
            },
            {
              "internalType": "uint256",
              "name": "estimatedDays",
              "type": "uint256"
            },
            {
              "internalType": "uint256",
              "name": "fundAmount",
              "type": "uint256"
            },
            {
              "internalType": "string",
              "name": "currency",
              "type": "string"
            },
            {
              "internalType": "string",
              "name": "aiJustification",
              "type": "string"
            },
            {
              "internalType": "string",
              "name": "trackingId",
              "type": "string"
            },
            {
              "internalType": "uint256",
              "name": "timestamp",
              "type": "uint256"
            },
            {
              "internalType": "address",
              "name": "submitter",
              "type": "address"
            },
            {
              "internalType": "bool",
              "name": "resolved",
              "type": "bool"
            }
          ],
          "internalType": "struct GrievanceRegistry.Grievance",
          "name": "",
          "type": "tuple"
        }
      ],
      "stateMutability": "view",
      "type": "function"
    },
    {
      "inputs": [
        {
          "internalType": "uint256",
          "name": "",
          "type": "uint256"
        }
      ],
      "name": "grievances",
      "outputs": [
        {
          "internalType": "string",
          "name": "title",
          "type": "string"
        },
        {
          "internalType": "string",
          "name": "description",
          "type": "string"
        },
        {
          "internalType": "string",
          "name": "category",
          "type": "string"
        },
        {
          "internalType": "string",
          "name": "location",
          "type": "string"
        },
        {
          "internalType": "uint256",
          "name": "mediaCount",
          "type": "uint256"
        },
        {
          "internalType": "string",
          "name": "priorityLevel",
          "type": "string"
        },
        {
          "internalType": "uint256",
          "name": "estimatedDays",
          "type": "uint256"
        },
        {
          "internalType": "uint256",
          "name": "fundAmount",
          "type": "uint256"
        },
        {
          "internalType": "string",
          "name": "currency",
          "type": "string"
        },
        {
          "internalType": "string",
          "name": "aiJustification",
          "type": "string"
        },
        {
          "internalType": "string",
          "name": "trackingId",
          "type": "string"
        },
        {
          "internalType": "uint256",
          "name": "timestamp",
          "type": "uint256"
        },
        {
          "internalType": "address",
          "name": "submitter",
          "type": "address"
        },
        {
          "internalType": "bool",
          "name": "resolved",
          "type": "bool"
        }
      ],
      "stateMutability": "view",
      "type": "function"
    },
    {
      "inputs": [
        {
          "internalType": "string",
          "name": "_trackingId",
          "type": "string"
        }
      ],
      "name": "markResolved",
      "outputs": [],
      "stateMutability": "nonpayable",
      "type": "function"
    },
    {
      "inputs": [
        {
          "internalType": "string",
          "name": "_title",
          "type": "string"
        },
        {
          "internalType": "string",
          "name": "_description",
          "type": "string"
        },
        {
          "internalType": "string",
          "name": "_category",
          "type": "string"
        },
        {
          "internalType": "string",
          "name": "_location",
          "type": "string"
        },
        {
          "internalType": "uint256",
          "name": "_mediaCount",
          "type": "uint256"
        },
        {
          "internalType": "string",
          "name": "_priorityLevel",
          "type": "string"
        },
        {
          "internalType": "uint256",
          "name": "_estimatedDays",
          "type": "uint256"
        },
        {
          "internalType": "uint256",
          "name": "_fundAmount",
          "type": "uint256"
        },
        {
          "internalType": "string",
          "name": "_currency",
          "type": "string"
        },
        {
          "internalType": "string",
          "name": "_aiJustification",
          "type": "string"
        },
        {
          "internalType": "string",
          "name": "_trackingId",
          "type": "string"
        }
      ],
      "name": "submitGrievance",
      "outputs": [],
      "stateMutability": "nonpayable",
      "type": "function"
    },
    {
      "inputs": [
        {
          "internalType": "string",
          "name": "",
          "type": "string"
        }
      ],
      "name": "trackingIdToIndex",
      "outputs": [
        {
          "internalType": "uint256",
          "name": "",
          "type": "uint256"
        }
      ],
      "stateMutability": "view",
      "type": "function"
    }
  ],
  "bytecode": "0x60808060405234601557611506908161001b8239f35b600080fdfe6080604052600436101561001257600080fd5b60003560e01c80631e671b6214610517578063356f1d75146103a65780639ecc78f71461034a578063b55d5a0614610262578063ca3bd5d41461016d5763e3f2cbd81461005e57600080fd5b34610168576000366003190112610168576000546001600160401b038111610152576040519061009460208260051b01836110e7565b808252602082019081600080527f290decd9548b62a8d60345a988386fc84ba6bc95484008f6362f93160ef3e5636000915b83831061013457848660405191829160208301906020845251809152604083019060408160051b85010192916000905b82821061010557505050500390f35b919360019193955060206101248192603f198a820301865288516112d4565b96019201920185949391926100f6565b600d6020600192610144856113ef565b8152019201920191906100c6565b634e487b7160e01b600052604160045260246000fd5b600080fd5b34610168576020366003190112610168576004356001600160401b0381116101685761019d903690600401611108565b60405160208183516101b2818385880161128c565b8101600181520301902054906101c78261115e565b50600c01546001600160a01b0316330361022d57600c6101e96102019361115e565b5001805460ff60a01b1916600160a01b1790556113cf565b7f660ceb0c1d7affa671261ba18cdfddbd938f1c4375cb51fbd647907532a223656020604051428152a2005b60405162461bcd60e51b815260206004820152600d60248201526c2737ba1039bab136b4ba3a32b960991b6044820152606490fd5b34610168576020366003190112610168576004356001600160401b0381116101685761033261032c61031c60206102a0610346953690600401611108565b60006101a06040516102b1816110cb565b6060815260608582015260606040820152606080820152826080820152606060a08201528260c08201528260e082015260606101008201526060610120820152606061014082015282610160820152826101808201520152816040519382858094519384920161128c565b810160018152030190205461115e565b506113ef565b6040519182916020835260208301906112d4565b0390f35b34610168576020366003190112610168576004356001600160401b03811161016857610393602061038081933690600401611108565b816040519382858094519384920161128c565b8101600181520301902054604051908152f35b3461016857602036600319011261016857600435600054811015610168576103cd9061115e565b506103d7816111e8565b6103e3600183016111e8565b916103f0600282016111e8565b6103fc600383016111e8565b600483015461040d600585016111e8565b60068501546007860154610423600888016111e8565b92610430600989016111e8565b9461043d600a8a016111e8565b96600b8a015499600c0154986040519c8d9c8d6101c081526101c001610462916112af565b8d810360208f0152610473916112af565b8c810360408e0152610484916112af565b8b810360608d0152610495916112af565b9060808b015289810360a08b01526104ac916112af565b9160c089015260e08801528681036101008801526104c9916112af565b8581036101208701526104db916112af565b8481036101408601526104ed916112af565b91610160840152600160a01b60019003811661018084015260a01c60ff1615156101a08301520390f35b3461016857610160366003190112610168576004356001600160401b03811161016857610548903690600401611108565b6024356001600160401b03811161016857610567903690600401611108565b6044356001600160401b03811161016857610586903690600401611108565b6064356001600160401b038111610168576105a5903690600401611108565b9160a4356001600160401b038111610168576105c5903690600401611108565b93610104356001600160401b038111610168576105e6903690600401611108565b93610124356001600160401b03811161016857610607903690600401611108565b610144356001600160401b03811161016857610627903690600401611108565b9586511561108f576040519361063c856110cb565b84526020840194855260408401958652606084019283526080840197608435895260a0850190815260c0850160c435815260e086019160e43583526101008701938452610120870194855261014087019a8a8c5261016088019642885261018089019a338c526101a08a019a60008c5260005468010000000000000000811015610152578060016106d0920160005561115e565b9b909b61107957518051906001600160401b038211610152578c82916106f682546111ae565b601f811161101c575b50602091601f8411600114610fb75750600092610fac575b50508160011b916000199060031b1c1916178b555b51805160018c01916001600160401b03821161015257819061074e84546111ae565b601f8111610f59575b50602090601f8311600114610ef457600092610ee9575b50508160011b916000199060031b1c19161790555b51805160028b01916001600160401b0382116101525781906107a584546111ae565b601f8111610e96575b50602090601f8311600114610e3157600092610e26575b50508160011b916000199060031b1c19161790555b51805160038a01916001600160401b0382116101525781906107fc84546111ae565b601f8111610dd3575b50602090601f8311600114610d6e57600092610d63575b50508160011b916000199060031b1c19161790555b51600488015551805160058801916001600160401b03821161015257819061085984546111ae565b601f8111610d10575b50602090601f8311600114610cab57600092610ca0575b50508160011b916000199060031b1c19161790555b51600686015551600785015551805160088501916001600160401b0382116101525781906108bc84546111ae565b601f8111610c4d575b50602090601f8311600114610be857600092610bdd575b50508160011b916000199060031b1c19161790555b51805160098401916001600160401b03821161015257819061091384546111ae565b601f8111610b8a575b50602090601f8311600114610b2557600092610b1a575b50508160011b916000199060031b1c19161790555b600a820195519586516001600160401b0381116101525761096982546111ae565b601f8111610ad2575b506020601f8211600114610a67578190600c96979899600092610a5c575b50508160011b916000199060031b1c19161790555b51600b82015592519201805491516001600160a81b03199092166001600160a01b03939093169290921790151560a01b60ff60a01b16179055600054600019810191908211610a4657610a17916040516020818451610a07818385890161128c565b81016001815203019020556113cf565b604051904282527f42066e02e05d70f0dcb2a02749eeff4bbea4d4d71599816318bde61f349af31f60203393a3005b634e487b7160e01b600052601160045260246000fd5b015190508980610990565b601f1982169883600052816000209960005b818110610aba575091600c9798999a91846001959410610aa1575b505050811b0190556109a5565b015160001960f88460031b161c19169055898080610a94565b838301518c556001909b019a60209384019301610a79565b826000526020600020601f830160051c81019160208410610b10575b601f0160051c01905b818110610b045750610972565b60008155600101610af7565b9091508190610aee565b015190508980610933565b60008581528281209350601f198516905b818110610b725750908460019594939210610b59575b505050811b019055610948565b015160001960f88460031b161c19169055898080610b4c565b92936020600181928786015181550195019301610b36565b909150836000526020600020601f840160051c81019160208510610bd3575b90601f859493920160051c01905b818110610bc4575061091c565b60008155849350600101610bb7565b9091508190610ba9565b015190508a806108dc565b60008581528281209350601f198516905b818110610c355750908460019594939210610c1c575b505050811b0190556108f1565b015160001960f88460031b161c191690558a8080610c0f565b92936020600181928786015181550195019301610bf9565b909150836000526020600020601f840160051c81019160208510610c96575b90601f859493920160051c01905b818110610c8757506108c5565b60008155849350600101610c7a565b9091508190610c6c565b015190508d80610879565b60008581528281209350601f198516905b818110610cf85750908460019594939210610cdf575b505050811b01905561088e565b015160001960f88460031b161c191690558d8080610cd2565b92936020600181928786015181550195019301610cbc565b909150836000526020600020601f840160051c81019160208510610d59575b90601f859493920160051c01905b818110610d4a5750610862565b60008155849350600101610d3d565b9091508190610d2f565b015190508f8061081c565b60008581528281209350601f198516905b818110610dbb5750908460019594939210610da2575b505050811b019055610831565b015160001960f88460031b161c191690558f8080610d95565b92936020600181928786015181550195019301610d7f565b909150836000526020600020601f840160051c81019160208510610e1c575b90601f859493920160051c01905b818110610e0d5750610805565b60008155849350600101610e00565b9091508190610df2565b0151905038806107c5565b60008581528281209350601f198516905b818110610e7e5750908460019594939210610e65575b505050811b0190556107da565b015160001960f88460031b161c19169055388080610e58565b92936020600181928786015181550195019301610e42565b909150836000526020600020601f840160051c81019160208510610edf575b90601f859493920160051c01905b818110610ed057506107ae565b60008155849350600101610ec3565b9091508190610eb5565b01519050388061076e565b60008581528281209350601f198516905b818110610f415750908460019594939210610f28575b505050811b019055610783565b015160001960f88460031b161c19169055388080610f1b565b92936020600181928786015181550195019301610f05565b909150836000526020600020601f840160051c81019160208510610fa2575b90601f859493920160051c01905b818110610f935750610757565b60008155849350600101610f86565b9091508190610f78565b015190503880610717565b60009081528281209350601f198516905b8181106110045750908460019594939210610feb575b505050811b018b5561072c565b015160001960f88460031b161c19169055388080610fde565b92936020600181928786015181550195019301610fc8565b919092506000526020600020601f840160051c8101916020851061106f575b918f9291601f8695930160051c01905b81811061105857506106ff565b90925060019193506000815501918e91849361104b565b909150819061103b565b634e487b7160e01b600052600060045260246000fd5b60405162461bcd60e51b8152602060048201526014602482015273151c9858dada5b99c81251081c995c5d5a5c995960621b6044820152606490fd5b6101c081019081106001600160401b0382111761015257604052565b90601f801991011681019081106001600160401b0382111761015257604052565b81601f82011215610168578035906001600160401b038211610152576040519261113c601f8401601f1916602001856110e7565b8284526020838301011161016857816000926020809301838601378301015290565b600054811015611198576000808052600d919091027f290decd9548b62a8d60345a988386fc84ba6bc95484008f6362f93160ef3e5630191565b634e487b7160e01b600052603260045260246000fd5b90600182811c921680156111de575b60208310146111c857565b634e487b7160e01b600052602260045260246000fd5b91607f16916111bd565b90604051918260008254926111fc846111ae565b808452936001811690811561126a5750600114611223575b50611221925003836110e7565b565b90506000929192526020600020906000915b81831061124e5750509060206112219282010138611214565b6020919350806001915483858901015201910190918492611235565b90506020925061122194915060ff191682840152151560051b82010138611214565b60005b83811061129f5750506000910152565b818101518382015260200161128f565b906020916112c88151809281855285808601910161128c565b601f01601f1916010190565b906101a0806113a561139161137d6113556113396113276113156113038b516101c08c526101c08c01906112af565b60208c01518b820360208d01526112af565b60408b01518a820360408c01526112af565b60608a015189820360608b01526112af565b6080890151608089015260a089015188820360a08a01526112af565b60c088015160c088015260e088015160e08801526101008801518782036101008901526112af565b6101208701518682036101208801526112af565b6101408601518582036101408701526112af565b6101608086015190850152610180808601516001600160a01b031690850152930151151591015290565b6113e79060206040519282848094519384920161128c565b810103902090565b906040516113fc816110cb565b6101a060ff600c839561140e816111e8565b855261141c600182016111e8565b602086015261142d600282016111e8565b604086015261143e600382016111e8565b606086015260048101546080860152611459600582016111e8565b60a0860152600681015460c0860152600781015460e086015261147e600882016111e8565b610100860152611490600982016111e8565b6101208601526114a2600a82016111e8565b610140860152600b81015461016086015201546001600160a01b03811661018085015260a01c16151591015256fea2646970667358221220f1e484bff0474280224eca2c8f793fbcd906218c9a978173acd0d6f81a5a83f664736f6c634300081c0033",
  "linkReferences": {},
  "deployedLinkReferences": {}
}