{"abi":[{"type":"receive","stateMutability":"payable"},{"type":"function","name":"deposit","inputs":[{"name":"delaySeconds","type":"uint256","internalType":"uint256"}],"outputs":[],"stateMutability":"payable"},{"type":"function","name":"userDeposits","inputs":[{"name":"","type":"address","internalType":"address"},{"name":"","type":"uint256","internalType":"uint256"}],"outputs":[{"name":"amount","type":"uint256","internalType":"uint256"},{"name":"unlockTime","type":"uint256","internalType":"uint256"},{"name":"withdrawn","type":"bool","internalType":"bool"}],"stateMutability":"view"},{"type":"function","name":"withdraw","inputs":[{"name":"index","type":"uint256","internalType":"uint256"}],"outputs":[],"stateMutability":"nonpayable"},{"type":"event","name":"Deposited","inputs":[{"name":"sender","type":"address","indexed":true,"internalType":"address"},{"name":"index","type":"uint256","indexed":false,"internalType":"uint256"},{"name":"amount","type":"uint256","indexed":false,"internalType":"uint256"},{"name":"unlockTime","type":"uint256","indexed":false,"internalType":"uint256"}],"anonymous":false},{"type":"event","name":"Withdrawn","inputs":[{"name":"recipient","type":"address","indexed":true,"internalType":"address"},{"name":"index","type":"uint256","indexed":false,"internalType":"uint256"},{"name":"amount","type":"uint256","indexed":false,"internalType":"uint256"}],"anonymous":false}],"bytecode":{"object":"0x6080604052348015600e575f80fd5b50610b048061001c5f395ff3fe608060405260043610610037575f3560e01c806308f433331461004b5780632e1a7d4d14610089578063b6b55f25146100b157610047565b36610047576100455f6100cd565b005b5f80fd5b348015610056575f80fd5b50610071600480360381019061006c919061062a565b6102b9565b60405161008093929190610691565b60405180910390f35b348015610094575f80fd5b506100af60048036038101906100aa91906106c6565b610304565b005b6100cb60048036038101906100c691906106c6565b6100cd565b005b5f341161010f576040517f08c379a00000000000000000000000000000000000000000000000000000000081526004016101069061074b565b60405180910390fd5b5f8111610151576040517f08c379a0000000000000000000000000000000000000000000000000000000008152600401610148906107b3565b60405180910390fd5b5f803373ffffffffffffffffffffffffffffffffffffffff1673ffffffffffffffffffffffffffffffffffffffff1681526020019081526020015f20604051806060016040528034815260200183426101aa91906107fe565b81526020015f1515815250908060018154018082558091505060019003905f5260205f2090600302015f909190919091505f820151815f0155602082015181600101556040820151816002015f6101000a81548160ff02191690831515021790555050503373ffffffffffffffffffffffffffffffffffffffff167f91ede45f04a37a7c170f5c1207df3b6bc748dc1e04ad5e917a241d0f52feada360015f803373ffffffffffffffffffffffffffffffffffffffff1673ffffffffffffffffffffffffffffffffffffffff1681526020019081526020015f20805490506102929190610831565b34844261029f91906107fe565b6040516102ae93929190610864565b60405180910390a250565b5f602052815f5260405f2081815481106102d1575f80fd5b905f5260205f2090600302015f9150915050805f015490806001015490806002015f9054906101000a900460ff16905083565b5f803373ffffffffffffffffffffffffffffffffffffffff1673ffffffffffffffffffffffffffffffffffffffff1681526020019081526020015f20805490508110610385576040517f08c379a000000000000000000000000000000000000000000000000000000000815260040161037c906108e3565b60405180910390fd5b5f805f3373ffffffffffffffffffffffffffffffffffffffff1673ffffffffffffffffffffffffffffffffffffffff1681526020019081526020015f2082815481106103d4576103d3610901565b5b905f5260205f20906003020190508060010154421015610429576040517f08c379a000000000000000000000000000000000000000000000000000000000815260040161042090610978565b60405180910390fd5b806002015f9054906101000a900460ff161561047a576040517f08c379a0000000000000000000000000000000000000000000000000000000008152600401610471906109e0565b60405180910390fd5b6001816002015f6101000a81548160ff0219169083151502179055505f3373ffffffffffffffffffffffffffffffffffffffff16825f01546040516104be90610a2b565b5f6040518083038185875af1925050503d805f81146104f8576040519150601f19603f3d011682016040523d82523d5f602084013e6104fd565b606091505b5050905080610541576040517f08c379a000000000000000000000000000000000000000000000000000000000815260040161053890610a89565b60405180910390fd5b3373ffffffffffffffffffffffffffffffffffffffff167f92ccf450a286a957af52509bc1c9939d1a6a481783e142e41e2499f0bb66ebc684845f015460405161058c929190610aa7565b60405180910390a2505050565b5f80fd5b5f73ffffffffffffffffffffffffffffffffffffffff82169050919050565b5f6105c68261059d565b9050919050565b6105d6816105bc565b81146105e0575f80fd5b50565b5f813590506105f1816105cd565b92915050565b5f819050919050565b610609816105f7565b8114610613575f80fd5b50565b5f8135905061062481610600565b92915050565b5f80604083850312156106405761063f610599565b5b5f61064d858286016105e3565b925050602061065e85828601610616565b9150509250929050565b610671816105f7565b82525050565b5f8115159050919050565b61068b81610677565b82525050565b5f6060820190506106a45f830186610668565b6106b16020830185610668565b6106be6040830184610682565b949350505050565b5f602082840312156106db576106da610599565b5b5f6106e884828501610616565b91505092915050565b5f82825260208201905092915050565b7f4d7573742073656e6420455448000000000000000000000000000000000000005f82015250565b5f610735600d836106f1565b915061074082610701565b602082019050919050565b5f6020820190508181035f83015261076281610729565b9050919050565b7f496e76616c69642064656c6179000000000000000000000000000000000000005f82015250565b5f61079d600d836106f1565b91506107a882610769565b602082019050919050565b5f6020820190508181035f8301526107ca81610791565b9050919050565b7f4e487b71000000000000000000000000000000000000000000000000000000005f52601160045260245ffd5b5f610808826105f7565b9150610813836105f7565b925082820190508082111561082b5761082a6107d1565b5b92915050565b5f61083b826105f7565b9150610846836105f7565b925082820390508181111561085e5761085d6107d1565b5b92915050565b5f6060820190506108775f830186610668565b6108846020830185610668565b6108916040830184610668565b949350505050565b7f496e76616c696420696e646578000000000000000000000000000000000000005f82015250565b5f6108cd600d836106f1565b91506108d882610899565b602082019050919050565b5f6020820190508181035f8301526108fa816108c1565b9050919050565b7f4e487b71000000000000000000000000000000000000000000000000000000005f52603260045260245ffd5b7f54696d65206c6f636b20616374697665000000000000000000000000000000005f82015250565b5f6109626010836106f1565b915061096d8261092e565b602082019050919050565b5f6020820190508181035f83015261098f81610956565b9050919050565b7f416c72656164792077697468647261776e0000000000000000000000000000005f82015250565b5f6109ca6011836106f1565b91506109d582610996565b602082019050919050565b5f6020820190508181035f8301526109f7816109be565b9050919050565b5f81905092915050565b50565b5f610a165f836109fe565b9150610a2182610a08565b5f82019050919050565b5f610a3582610a0b565b9150819050919050565b7f5472616e73666572206661696c656400000000000000000000000000000000005f82015250565b5f610a73600f836106f1565b9150610a7e82610a3f565b602082019050919050565b5f6020820190508181035f830152610aa081610a67565b9050919050565b5f604082019050610aba5f830185610668565b610ac76020830184610668565b939250505056fea26469706673582212205528de4dc67205ee217334ff9523dbcda7715540ab7f9872662e6af4561c282364736f6c634300081a0033","linkReferences":{}},"methodIdentifiers":{"deposit(uint256)":"b6b55f25","userDeposits(address,uint256)":"08f43333","withdraw(uint256)":"2e1a7d4d"},"id":15}