{
  "_format": "hh-sol-artifact-1",
  "contractName": "TimeLockReactive",
  "sourceName": "contracts/timelock-escrow/src/TimeLockReactive.sol",
  "abi": [
    {
      "inputs": [
        {
          "internalType": "address",
          "name": "_baseEscrow",
          "type": "address"
        },
        {
          "internalType": "address",
          "name": "_reactiveService",
          "type": "address"
        }
      ],
      "stateMutability": "nonpayable",
      "type": "constructor"
    },
    {
      "inputs": [],
      "name": "baseEscrow",
      "outputs": [
        {
          "internalType": "address",
          "name": "",
          "type": "address"
        }
      ],
      "stateMutability": "view",
      "type": "function"
    },
    {
      "inputs": [],
      "name": "initialize",
      "outputs": [],
      "stateMutability": "nonpayable",
      "type": "function"
    },
    {
      "inputs": [
        {
          "internalType": "address",
          "name": "sender",
          "type": "address"
        },
        {
          "internalType": "uint256",
          "name": "index",
          "type": "uint256"
        },
        {
          "internalType": "uint256",
          "name": "unlockTime",
          "type": "uint256"
        }
      ],
      "name": "reactDeposit",
      "outputs": [],
      "stateMutability": "nonpayable",
      "type": "function"
    },
    {
      "inputs": [],
      "name": "reactiveService",
      "outputs": [
        {
          "internalType": "contract IReactiveService",
          "name": "",
          "type": "address"
        }
      ],
      "stateMutability": "view",
      "type": "function"
    }
  ],
  "bytecode": "0x60c03461009f57601f61042c38819003918201601f19168301916001600160401b038311848410176100a457808492604094855283398101031261009f57610052602061004b836100ba565b92016100ba565b6080919091526001600160a01b031660a05260405161035d90816100cf823960805181818161013f015281816101f90152610280015260a05181818160620152818160f9015261023d0152f35b600080fd5b634e487b7160e01b600052604160045260246000fd5b51906001600160a01b038216820361009f5756fe608080604052600436101561001357600080fd5b600090813560e01c9081638129fc1c1461022857508063b96cc1e3146101e3578063c2e802de146100945763f9a939a81461004d57600080fd5b346100915780600319360112610091576040517f00000000000000000000000000000000000000000000000000000000000000006001600160a01b03168152602090f35b80fd5b5034610091576060366003190112610091576004356001600160a01b038116908190036101df576044354210156100c9575080f35b906040519163f4970e7160e01b602084015260248301526024356044830152604482526100f76064836102ef565b7f00000000000000000000000000000000000000000000000000000000000000006001600160a01b0316803b156101df5760405190639061b04560e01b825260018060a01b037f0000000000000000000000000000000000000000000000000000000000000000166004830152604060248301528351806044840152835b8181106101c9575083945083918383606482858383839884010152601f801991011681010301925af180156101be576101ad57505080f35b816101b7916102ef565b6100915780f35b6040513d84823e3d90fd5b8060208092880101516064828701015201610175565b5080fd5b50346100915780600319360112610091576040517f00000000000000000000000000000000000000000000000000000000000000006001600160a01b03168152602090f35b9050346101df57816003193601126101df57817f00000000000000000000000000000000000000000000000000000000000000006001600160a01b0316803b156101df57637af14d9960e01b835261210560048401527f00000000000000000000000000000000000000000000000000000000000000006001600160a01b031660248401526391ede45f60e01b604484015281908390606490829084905af180156102e2576102d45780f35b6102dd916102ef565b388180f35b50604051903d90823e3d90fd5b90601f8019910116810190811067ffffffffffffffff82111761031157604052565b634e487b7160e01b600052604160045260246000fdfea26469706673582212204162777d02c1036252bf4fee315ec34e8ea5f2b0abd882607dadf83b6c27176464736f6c634300081c0033",
  "linkReferences": {},
  "deployedLinkReferences": {}
}