{"abi":[{"type":"constructor","inputs":[{"name":"_baseEscrow","type":"address","internalType":"address"},{"name":"_reactiveService","type":"address","internalType":"address"}],"stateMutability":"nonpayable"},{"type":"function","name":"baseEscrow","inputs":[],"outputs":[{"name":"","type":"address","internalType":"address"}],"stateMutability":"view"},{"type":"function","name":"initialize","inputs":[],"outputs":[],"stateMutability":"nonpayable"},{"type":"function","name":"reactDeposit","inputs":[{"name":"sender","type":"address","internalType":"address"},{"name":"index","type":"uint256","internalType":"uint256"},{"name":"unlockTime","type":"uint256","internalType":"uint256"}],"outputs":[],"stateMutability":"nonpayable"},{"type":"function","name":"reactiveService","inputs":[],"outputs":[{"name":"","type":"address","internalType":"contract IReactiveService"}],"stateMutability":"view"}],"bytecode":{"object":"0x60c060405234801561000f575f80fd5b506040516107b53803806107b5833981810160405281019061003191906100fe565b8173ffffffffffffffffffffffffffffffffffffffff1660808173ffffffffffffffffffffffffffffffffffffffff16815250508073ffffffffffffffffffffffffffffffffffffffff1660a08173ffffffffffffffffffffffffffffffffffffffff1681525050505061013c565b5f80fd5b5f73ffffffffffffffffffffffffffffffffffffffff82169050919050565b5f6100cd826100a4565b9050919050565b6100dd816100c3565b81146100e7575f80fd5b50565b5f815190506100f8816100d4565b92915050565b5f8060408385031215610114576101136100a0565b5b5f610121858286016100ea565b9250506020610132858286016100ea565b9150509250929050565b60805160a05161063e6101775f395f818160b20152818161023e01526102ed01525f818160f101528181610180015261027a015261063e5ff3fe608060405234801561000f575f80fd5b506004361061004a575f3560e01c80638129fc1c1461004e578063b96cc1e314610058578063c2e802de14610076578063f9a939a814610092575b5f80fd5b6100566100b0565b005b61006061017e565b60405161006d919061034e565b60405180910390f35b610090600480360381019061008b91906103c8565b6101a2565b005b61009a6102eb565b6040516100a79190610473565b60405180910390f35b7f000000000000000000000000000000000000000000000000000000000000000073ffffffffffffffffffffffffffffffffffffffff16637af14d996121057f00000000000000000000000000000000000000000000000000000000000000007f91ede45f04a37a7c170f5c1207df3b6bc748dc1e04ad5e917a241d0f52feada36040518463ffffffff1660e01b815260040161014f939291906104ff565b5f604051808303815f87803b158015610166575f80fd5b505af1158015610178573d5f803e3d5ffd5b50505050565b7f000000000000000000000000000000000000000000000000000000000000000081565b8042106102e6575f83836040516024016101bd929190610543565b6040516020818303038152906040527ff4970e71000000000000000000000000000000000000000000000000000000007bffffffffffffffffffffffffffffffffffffffffffffffffffffffff19166020820180517bffffffffffffffffffffffffffffffffffffffffffffffffffffffff838183161783525050505090507f000000000000000000000000000000000000000000000000000000000000000073ffffffffffffffffffffffffffffffffffffffff16639061b0457f0000000000000000000000000000000000000000000000000000000000000000836040518363ffffffff1660e01b81526004016102b79291906105da565b5f604051808303815f87803b1580156102ce575f80fd5b505af11580156102e0573d5f803e3d5ffd5b50505050505b505050565b7f000000000000000000000000000000000000000000000000000000000000000081565b5f73ffffffffffffffffffffffffffffffffffffffff82169050919050565b5f6103388261030f565b9050919050565b6103488161032e565b82525050565b5f6020820190506103615f83018461033f565b92915050565b5f80fd5b6103748161032e565b811461037e575f80fd5b50565b5f8135905061038f8161036b565b92915050565b5f819050919050565b6103a781610395565b81146103b1575f80fd5b50565b5f813590506103c28161039e565b92915050565b5f805f606084860312156103df576103de610367565b5b5f6103ec86828701610381565b93505060206103fd868287016103b4565b925050604061040e868287016103b4565b9150509250925092565b5f819050919050565b5f61043b6104366104318461030f565b610418565b61030f565b9050919050565b5f61044c82610421565b9050919050565b5f61045d82610442565b9050919050565b61046d81610453565b82525050565b5f6020820190506104865f830184610464565b92915050565b5f819050919050565b5f6104af6104aa6104a58461048c565b610418565b610395565b9050919050565b6104bf81610495565b82525050565b5f7fffffffff0000000000000000000000000000000000000000000000000000000082169050919050565b6104f9816104c5565b82525050565b5f6060820190506105125f8301866104b6565b61051f602083018561033f565b61052c60408301846104f0565b949350505050565b61053d81610395565b82525050565b5f6040820190506105565f83018561033f565b6105636020830184610534565b9392505050565b5f81519050919050565b5f82825260208201905092915050565b8281835e5f83830152505050565b5f601f19601f8301169050919050565b5f6105ac8261056a565b6105b68185610574565b93506105c6818560208601610584565b6105cf81610592565b840191505092915050565b5f6040820190506105ed5f83018561033f565b81810360208301526105ff81846105a2565b9050939250505056fea264697066735822122073543fb0615f9ef0c3a81f80138b9447f8e8298ef51559025585046fadea07c964736f6c634300081a0033","linkReferences":{}},"methodIdentifiers":{"baseEscrow()":"b96cc1e3","initialize()":"8129fc1c","reactDeposit(address,uint256,uint256)":"c2e802de","reactiveService()":"f9a939a8"},"id":15}