{
  "_format": "hh-sol-artifact-1",
  "contractName": "GrievanceRegistry",
  "sourceName": "contracts/GrievanceRegistry.sol",
  "abi": [
    {
      "anonymous": false,
      "inputs": [
        {
          "indexed": false,
          "internalType": "string",
          "name": "trackingId",
          "type": "string"
        }
      ],
      "name": "GrievanceDetailsAdded",
      "type": "event"
    },
    {
      "anonymous": false,
      "inputs": [
        {
          "indexed": false,
          "internalType": "string",
          "name": "trackingId",
          "type": "string"
        }
      ],
      "name": "GrievanceMetaAdded",
      "type": "event"
    },
    {
      "anonymous": false,
      "inputs": [
        {
          "indexed": false,
          "internalType": "string",
          "name": "trackingId",
          "type": "string"
        }
      ],
      "name": "GrievanceResolved",
      "type": "event"
    },
    {
      "anonymous": false,
      "inputs": [
        {
          "indexed": false,
          "internalType": "string",
          "name": "trackingId",
          "type": "string"
        },
        {
          "indexed": true,
          "internalType": "address",
          "name": "submitter",
          "type": "address"
        }
      ],
      "name": "GrievanceSubmitted",
      "type": "event"
    },
    {
      "inputs": [],
      "name": "getAllTrackingIds",
      "outputs": [
        {
          "internalType": "string[]",
          "name": "",
          "type": "string[]"
        }
      ],
      "stateMutability": "view",
      "type": "function"
    },
    {
      "inputs": [
        {
          "internalType": "string",
          "name": "trackingId",
          "type": "string"
        }
      ],
      "name": "getGrievanceBasic",
      "outputs": [
        {
          "internalType": "string",
          "name": "title",
          "type": "string"
        },
        {
          "internalType": "string",
          "name": "description",
          "type": "string"
        },
        {
          "internalType": "string",
          "name": "category",
          "type": "string"
        },
        {
          "internalType": "string",
          "name": "location",
          "type": "string"
        },
        {
          "internalType": "uint256",
          "name": "mediaCount",
          "type": "uint256"
        },
        {
          "internalType": "string",
          "name": "priorityLevel",
          "type": "string"
        },
        {
          "internalType": "uint256",
          "name": "timestamp",
          "type": "uint256"
        },
        {
          "internalType": "address",
          "name": "submitter",
          "type": "address"
        },
        {
          "internalType": "bool",
          "name": "resolved",
          "type": "bool"
        }
      ],
      "stateMutability": "view",
      "type": "function"
    },
    {
      "inputs": [
        {
          "internalType": "string",
          "name": "trackingId",
          "type": "string"
        }
      ],
      "name": "getGrievanceDetails",
      "outputs": [
        {
          "internalType": "uint256",
          "name": "estimatedDays",
          "type": "uint256"
        },
        {
          "internalType": "uint256",
          "name": "fundAmount",
          "type": "uint256"
        },
        {
          "internalType": "string",
          "name": "currency",
          "type": "string"
        },
        {
          "internalType": "string",
          "name": "aiJustification",
          "type": "string"
        }
      ],
      "stateMutability": "view",
      "type": "function"
    },
    {
      "inputs": [
        {
          "internalType": "string",
          "name": "trackingId",
          "type": "string"
        }
      ],
      "name": "markResolved",
      "outputs": [],
      "stateMutability": "nonpayable",
      "type": "function"
    },
    {
      "inputs": [
        {
          "internalType": "string",
          "name": "title",
          "type": "string"
        },
        {
          "internalType": "string",
          "name": "description",
          "type": "string"
        },
        {
          "internalType": "string",
          "name": "category",
          "type": "string"
        },
        {
          "internalType": "string",
          "name": "location",
          "type": "string"
        },
        {
          "internalType": "uint256",
          "name": "mediaCount",
          "type": "uint256"
        },
        {
          "internalType": "string",
          "name": "priorityLevel",
          "type": "string"
        },
        {
          "internalType": "string",
          "name": "trackingId",
          "type": "string"
        },
        {
          "internalType": "uint256",
          "name": "estimatedDays",
          "type": "uint256"
        },
        {
          "internalType": "uint256",
          "name": "fundAmount",
          "type": "uint256"
        },
        {
          "internalType": "string",
          "name": "currency",
          "type": "string"
        },
        {
          "internalType": "string",
          "name": "aiJustification",
          "type": "string"
        }
      ],
      "name": "submitGrievance",
      "outputs": [],
      "stateMutability": "nonpayable",
      "type": "function"
    }
  ],
  "bytecode": "0x608080604052346015576111fd908161001b8239f35b600080fdfe6080604052600436101561001257600080fd5b60003560e01c806315e7e9ac14610ed05780631ad6550b14610dae57806354cb24a414610cb0578063ca3bd5d414610bf75763e601539d1461005357600080fd5b34610bf257610160366003190112610bf2576004356001600160401b038111610bf257610084903690600401610f84565b6024356001600160401b038111610bf2576100a3903690600401610f84565b906044356001600160401b038111610bf2576100c3903690600401610f84565b906064356001600160401b038111610bf2576100e3903690600401610f84565b9160a4356001600160401b038111610bf257610103903690600401610f84565b60c4356001600160401b038111610bf257610122903690600401610f84565b93610124356001600160401b038111610bf257610143903690600401610f84565b92610144356001600160401b038111610bf257610164903690600401610f84565b96604051956101c087018781106001600160401b03821117610679576040528652602086015260408501526060840152608435608084015260a08301528260c08301524260e083015233610100830152600061012083015260e435610140830152610104356101608301526101808201526101a081019283526000546801000000000000000081101561067957806001610201920160005561106e565b919091610bdc5780518051906001600160401b03821161067957819061022785546110be565b601f8111610b8c575b50602090601f8311600114610b2757600092610b1c575b50508160011b916000199060031b1c19161782555b6001820160208201518051906001600160401b03821161067957819061028284546110be565b601f8111610ac9575b50602090601f8311600114610a6457600092610a59575b50508160011b916000199060031b1c19161790555b6002820160408201518051906001600160401b0382116106795781906102dd84546110be565b601f8111610a06575b50602090601f83116001146109a157600092610996575b50508160011b916000199060031b1c19161790555b6003820160608201518051906001600160401b03821161067957819061033884546110be565b601f8111610943575b50602090601f83116001146108de576000926108d3575b50508160011b916000199060031b1c19161790555b608081015160048301556005820160a08201518051906001600160401b03821161067957819061039d84546110be565b601f8111610880575b50602090601f831160011461081b57600092610810575b50508160011b916000199060031b1c19161790555b6006820160c08201518051906001600160401b0382116106795781906103f884546110be565b601f81116107bd575b50602090601f83116001146107585760009261074d575b50508160011b916000199060031b1c19161790555b60e0810151600783015561010081015160088301805461012084015160ff60a01b90151560a01b166001600160a01b039093166001600160a81b0319909116179190911790556101408101516009830155610160810151600a83015561018001518051600b8301916001600160401b038211610679576104ad83546110be565b601f8111610705575b50602090601f831160011461069a57600c949392916000918361068f575b50508160011b916000199060031b1c19161790555b0191519182516001600160401b0381116106795761050782546110be565b601f8111610631575b506020601f82116001146105cc57819293946000926105c1575b50508160011b916000199060031b1c19161790555b60005460001981019081116105ab5760405160208184516105638183858901610fda565b81016001815203019020557ff5a6c84b3f6ab37509465bf68bcae799c9ac4c1ef656db5fa4d4fb5eda2620a960405160208152806105a633946020830190610ffd565b0390a2005b634e487b7160e01b600052601160045260246000fd5b01519050388061052a565b601f1982169083600052806000209160005b81811061061957509583600195969710610600575b505050811b01905561053f565b015160001960f88460031b161c191690553880806105f3565b9192602060018192868b0151815501940192016105de565b826000526020600020601f830160051c8101916020841061066f575b601f0160051c01905b8181106106635750610510565b60008155600101610656565b909150819061064d565b634e487b7160e01b600052604160045260246000fd5b0151905038806104d4565b90601f1983169184600052816000209260005b8181106106ed5750916001939185600c98979694106106d4575b505050811b0190556104e9565b015160001960f88460031b161c191690553880806106c7565b929360206001819287860151815501950193016106ad565b836000526020600020601f840160051c81019160208510610743575b601f0160051c01905b81811061073757506104b6565b6000815560010161072a565b9091508190610721565b015190503880610418565b60008581528281209350601f198516905b8181106107a5575090846001959493921061078c575b505050811b01905561042d565b015160001960f88460031b161c1916905538808061077f565b92936020600181928786015181550195019301610769565b909150836000526020600020601f840160051c81019160208510610806575b90601f859493920160051c01905b8181106107f75750610401565b600081558493506001016107ea565b90915081906107dc565b0151905038806103bd565b60008581528281209350601f198516905b818110610868575090846001959493921061084f575b505050811b0190556103d2565b015160001960f88460031b161c19169055388080610842565b9293602060018192878601518155019501930161082c565b909150836000526020600020601f840160051c810191602085106108c9575b90601f859493920160051c01905b8181106108ba57506103a6565b600081558493506001016108ad565b909150819061089f565b015190503880610358565b60008581528281209350601f198516905b81811061092b5750908460019594939210610912575b505050811b01905561036d565b015160001960f88460031b161c19169055388080610905565b929360206001819287860151815501950193016108ef565b909150836000526020600020601f840160051c8101916020851061098c575b90601f859493920160051c01905b81811061097d5750610341565b60008155849350600101610970565b9091508190610962565b0151905038806102fd565b60008581528281209350601f198516905b8181106109ee57509084600195949392106109d5575b505050811b019055610312565b015160001960f88460031b161c191690553880806109c8565b929360206001819287860151815501950193016109b2565b909150836000526020600020601f840160051c81019160208510610a4f575b90601f859493920160051c01905b818110610a4057506102e6565b60008155849350600101610a33565b9091508190610a25565b0151905038806102a2565b60008581528281209350601f198516905b818110610ab15750908460019594939210610a98575b505050811b0190556102b7565b015160001960f88460031b161c19169055388080610a8b565b92936020600181928786015181550195019301610a75565b909150836000526020600020601f840160051c81019160208510610b12575b90601f859493920160051c01905b818110610b03575061028b565b60008155849350600101610af6565b9091508190610ae8565b015190503880610247565b60008681528281209350601f198516905b818110610b745750908460019594939210610b5b575b505050811b01825561025c565b015160001960f88460031b161c19169055388080610b4e565b92936020600181928786015181550195019301610b38565b909150846000526020600020601f840160051c810160208510610bd5575b90849392915b601f830160051c82018110610bc6575050610230565b60008155859450600101610bb0565b5080610baa565b634e487b7160e01b600052600060045260246000fd5b600080fd5b34610bf2576020366003190112610bf2576004356001600160401b038111610bf257610cab610c4b7f9e877846fc0246eebec1bd959d42ba4e886602c08b0d4a4983669824405404dd923690600401610f84565b6008610c826040516020818551610c658183858a01610fda565b8101600181520301902054610c7d6000548210611022565b61106e565b5001805460ff60a01b1916600160a01b1790556040516020808252909283929091830190610ffd565b0390a1005b34610bf2576000366003190112610bf257600054610ccd8161119c565b90610cdb6040519283610f63565b808252601f19610cea8261119c565b0160005b818110610d9d57505060005b818110610d6957826040518091602082016020835281518091526040830190602060408260051b8601019301916000905b828210610d3a57505050500390f35b91936001919395506020610d598192603f198a82030186528851610ffd565b9601920192018594939192610d2b565b80610d816006610d7a60019461106e565b50016110f8565b610d8b82866111b3565b52610d9681856111b3565b5001610cfa565b806060602080938701015201610cee565b34610bf2576020366003190112610bf2576004356001600160401b038111610bf257610c656020610de6610df9933690600401610f84565b8160405193828580945193849201610fda565b50610120600482015460ff600784015491610ea9600886015491610e1c876110f8565b96610e96610e2c600183016110f8565b91610e88610e3c600283016110f8565b610e7a610e576005610e50600387016110f8565b95016110f8565b95610e6c6040519e8f9e8f8181520190610ffd565b8d810360208f015290610ffd565b908b820360408d0152610ffd565b9089820360608b0152610ffd565b91608088015286820360a0880152610ffd565b60c08501939093526001600160a01b03811660e085015260a01c1615156101008301520390f35b34610bf2576020366003190112610bf2576004356001600160401b038111610bf257610c656020610de6610f08933690600401610f84565b506009810154610f5f600a83015492610f51610f32600c610f2b600b85016110f8565b93016110f8565b9160405195869586526020860152608060408601526080850190610ffd565b908382036060850152610ffd565b0390f35b90601f801991011681019081106001600160401b0382111761067957604052565b81601f82011215610bf2578035906001600160401b0382116106795760405192610fb8601f8401601f191660200185610f63565b82845260208383010111610bf257816000926020809301838601378301015290565b60005b838110610fed5750506000910152565b8181015183820152602001610fdd565b9060209161101681518092818552858086019101610fda565b601f01601f1916010190565b1561102957565b60405162461bcd60e51b815260206004820152601860248201527f4772696576616e636520646f6573206e6f7420657869737400000000000000006044820152606490fd5b6000548110156110a8576000808052600d919091027f290decd9548b62a8d60345a988386fc84ba6bc95484008f6362f93160ef3e5630191565b634e487b7160e01b600052603260045260246000fd5b90600182811c921680156110ee575b60208310146110d857565b634e487b7160e01b600052602260045260246000fd5b91607f16916110cd565b906040519182600082549261110c846110be565b808452936001811690811561117a5750600114611133575b5061113192500383610f63565b565b90506000929192526020600020906000915b81831061115e5750509060206111319282010138611124565b6020919350806001915483858901015201910190918492611145565b90506020925061113194915060ff191682840152151560051b82010138611124565b6001600160401b0381116106795760051b60200190565b80518210156110a85760209160051b01019056fea2646970667358221220b05696f03f12482e917bcaea5cb4da880551618e9d6e48ddfa0c5c22b2afc1dd64736f6c634300081c0033",
  "linkReferences": {},
  "deployedLinkReferences": {}
}