{
  "_format": "hh-sol-artifact-1",
  "contractName": "TimeLockEscrow",
  "sourceName": "contracts/timelock-escrow/src/TimeLockEscrow.sol",
  "abi": [
    {
      "anonymous": false,
      "inputs": [
        {
          "indexed": true,
          "internalType": "address",
          "name": "sender",
          "type": "address"
        },
        {
          "indexed": false,
          "internalType": "uint256",
          "name": "index",
          "type": "uint256"
        },
        {
          "indexed": false,
          "internalType": "uint256",
          "name": "amount",
          "type": "uint256"
        },
        {
          "indexed": false,
          "internalType": "uint256",
          "name": "unlockTime",
          "type": "uint256"
        }
      ],
      "name": "Deposited",
      "type": "event"
    },
    {
      "anonymous": false,
      "inputs": [
        {
          "indexed": true,
          "internalType": "address",
          "name": "recipient",
          "type": "address"
        },
        {
          "indexed": false,
          "internalType": "uint256",
          "name": "index",
          "type": "uint256"
        },
        {
          "indexed": false,
          "internalType": "uint256",
          "name": "amount",
          "type": "uint256"
        }
      ],
      "name": "Withdrawn",
      "type": "event"
    },
    {
      "inputs": [
        {
          "internalType": "uint256",
          "name": "delaySeconds",
          "type": "uint256"
        }
      ],
      "name": "deposit",
      "outputs": [],
      "stateMutability": "payable",
      "type": "function"
    },
    {
      "inputs": [
        {
          "internalType": "address",
          "name": "",
          "type": "address"
        },
        {
          "internalType": "uint256",
          "name": "",
          "type": "uint256"
        }
      ],
      "name": "userDeposits",
      "outputs": [
        {
          "internalType": "uint256",
          "name": "amount",
          "type": "uint256"
        },
        {
          "internalType": "uint256",
          "name": "unlockTime",
          "type": "uint256"
        },
        {
          "internalType": "bool",
          "name": "withdrawn",
          "type": "bool"
        }
      ],
      "stateMutability": "view",
      "type": "function"
    },
    {
      "inputs": [
        {
          "internalType": "uint256",
          "name": "index",
          "type": "uint256"
        }
      ],
      "name": "withdraw",
      "outputs": [],
      "stateMutability": "nonpayable",
      "type": "function"
    },
    {
      "stateMutability": "payable",
      "type": "receive"
    }
  ],
  "bytecode": "0x608080604052346015576104f4908161001b8239f35b600080fdfe60806040526004361015610089575b361561001957600080fd5b34156100545760405162461bcd60e51b815260206004820152600d60248201526c496e76616c69642064656c617960981b6044820152606490fd5b60405162461bcd60e51b815260206004820152600d60248201526c09aeae6e840e6cadcc8408aa89609b1b6044820152606490fd5b60003560e01c806308f433331461040d5780632e1a7d4d146102385763b6b55f250361000e5760203660031901126102335760043534156100545780156101fe5733600052600060205260406000206100e282426104b1565b90604051906060820182811067ffffffffffffffff8211176101e857604052348252602082019283526040820190600082528054680100000000000000008110156101e8576101369160018201815561047f565b9390936101d25760029251845551600184015551151591019060ff8019835416911515161790553360005260006020526040600020549060001982019182116101bc5761018390426104b1565b60405191825234602083015260408201527f91ede45f04a37a7c170f5c1207df3b6bc748dc1e04ad5e917a241d0f52feada360603392a2005b634e487b7160e01b600052601160045260246000fd5b634e487b7160e01b600052600060045260246000fd5b634e487b7160e01b600052604160045260246000fd5b60405162461bcd60e51b815260206004820152600d60248201526c496e76616c69642064656c617960981b6044820152606490fd5b600080fd5b34610233576020366003190112610233576004353360005260006020526040600020548110156103d85733600052600060205261027981604060002061047f565b50600181015442106103a05760028101805460ff81166103675760019060ff191617905560008080808454335af13d15610362573d67ffffffffffffffff81116101e85760405190601f8101601f19908116603f0116820167ffffffffffffffff8111838210176101e8576040528152600060203d92013e5b1561032b575460405191825260208201527f92ccf450a286a957af52509bc1c9939d1a6a481783e142e41e2499f0bb66ebc660403392a2005b60405162461bcd60e51b815260206004820152600f60248201526e151c985b9cd9995c8819985a5b1959608a1b6044820152606490fd5b6102f2565b60405162461bcd60e51b815260206004820152601160248201527020b63932b0b23c903bb4ba34323930bbb760791b6044820152606490fd5b60405162461bcd60e51b815260206004820152601060248201526f54696d65206c6f636b2061637469766560801b6044820152606490fd5b60405162461bcd60e51b815260206004820152600d60248201526c092dcecc2d8d2c840d2dcc8caf609b1b6044820152606490fd5b34610233576040366003190112610233576004356001600160a01b038116908190036102335760243590600052600060205260406000208054821015610233576060916104599161047f565b5080549060ff600260018301549201541690604051928352602083015215156040820152f35b805482101561049b576000526003602060002091020190600090565b634e487b7160e01b600052603260045260246000fd5b919082018092116101bc5756fea26469706673582212200826d16a83f243586e442ab13b1de04081e955a47acb95d976408672327ae96864736f6c634300081c0033",
  "linkReferences": {},
  "deployedLinkReferences": {}
}